{
  "abi": [
    {
      "inputs": [],
      "stateMutability": "nonpayable",
      "type": "constructor"
    },
    {
      "inputs": [
        {
          "internalType": "uint256",
          "name": "numerator",
          "type": "uint256"
        },
        {
          "internalType": "uint256",
          "name": "denominator",
          "type": "uint256"
        }
      ],
      "name": "ERC2981InvalidDefaultRoyalty",
      "type": "error"
    },
    {
      "inputs": [
        {
          "internalType": "address",
          "name": "receiver",
          "type": "address"
        }
      ],
      "name": "ERC2981InvalidDefaultRoyaltyReceiver",
      "type": "error"
    },
    {
      "inputs": [
        {
          "internalType": "uint256",
          "name": "tokenId",
          "type": "uint256"
        },
        {
          "internalType": "uint256",
          "name": "numerator",
          "type": "uint256"
        },
        {
          "internalType": "uint256",
          "name": "denominator",
          "type": "uint256"
        }
      ],
      "name": "ERC2981InvalidTokenRoyalty",
      "type": "error"
    },
    {
      "inputs": [
        {
          "internalType": "uint256",
          "name": "tokenId",
          "type": "uint256"
        },
        {
          "internalType": "address",
          "name": "receiver",
          "type": "address"
        }
      ],
      "name": "ERC2981InvalidTokenRoyaltyReceiver",
      "type": "error"
    },
    {
      "inputs": [
        {
          "internalType": "address",
          "name": "sender",
          "type": "address"
        },
        {
          "internalType": "uint256",
          "name": "tokenId",
          "type": "uint256"
        },
        {
          "internalType": "address",
          "name": "owner",
          "type": "address"
        }
      ],
      "name": "ERC721IncorrectOwner",
      "type": "error"
    },
    {
      "inputs": [
        {
          "internalType": "address",
          "name": "operator",
          "type": "address"
        },
        {
          "internalType": "uint256",
          "name": "tokenId",
          "type": "uint256"
        }
      ],
      "name": "ERC721InsufficientApproval",
      "type": "error"
    },
    {
      "inputs": [
        {
          "internalType": "address",
          "name": "approver",
          "type": "address"
        }
      ],
      "name": "ERC721InvalidApprover",
      "type": "error"
    },
    {
      "inputs": [
        {
          "internalType": "address",
          "name": "operator",
          "type": "address"
        }
      ],
      "name": "ERC721InvalidOperator",
      "type": "error"
    },
    {
      "inputs": [
        {
          "internalType": "address",
          "name": "owner",
          "type": "address"
        }
      ],
      "name": "ERC721InvalidOwner",
      "type": "error"
    },
    {
      "inputs": [
        {
          "internalType": "address",
          "name": "receiver",
          "type": "address"
        }
      ],
      "name": "ERC721InvalidReceiver",
      "type": "error"
    },
    {
      "inputs": [
        {
          "internalType": "address",
          "name": "sender",
          "type": "address"
        }
      ],
      "name": "ERC721InvalidSender",
      "type": "error"
    },
    {
      "inputs": [
        {
          "internalType": "uint256",
          "name": "tokenId",
          "type": "uint256"
        }
      ],
      "name": "ERC721NonexistentToken",
      "type": "error"
    },
    {
      "inputs": [],
      "name": "InvalidInitialization",
      "type": "error"
    },
    {
      "inputs": [],
      "name": "NotInitializing",
      "type": "error"
    },
    {
      "inputs": [
        {
          "internalType": "address",
          "name": "owner",
          "type": "address"
        }
      ],
      "name": "OwnableInvalidOwner",
      "type": "error"
    },
    {
      "inputs": [
        {
          "internalType": "address",
          "name": "account",
          "type": "address"
        }
      ],
      "name": "OwnableUnauthorizedAccount",
      "type": "error"
    },
    {
      "anonymous": false,
      "inputs": [
        {
          "indexed": true,
          "internalType": "address",
          "name": "owner",
          "type": "address"
        },
        {
          "indexed": true,
          "internalType": "address",
          "name": "approved",
          "type": "address"
        },
        {
          "indexed": true,
          "internalType": "uint256",
          "name": "tokenId",
          "type": "uint256"
        }
      ],
      "name": "Approval",
      "type": "event"
    },
    {
      "anonymous": false,
      "inputs": [
        {
          "indexed": true,
          "internalType": "address",
          "name": "owner",
          "type": "address"
        },
        {
          "indexed": true,
          "internalType": "address",
          "name": "operator",
          "type": "address"
        },
        {
          "indexed": false,
          "internalType": "bool",
          "name": "approved",
          "type": "bool"
        }
      ],
      "name": "ApprovalForAll",
      "type": "event"
    },
    {
      "anonymous": false,
      "inputs": [
        {
          "indexed": false,
          "internalType": "uint256",
          "name": "_fromTokenId",
          "type": "uint256"
        },
        {
          "indexed": false,
          "internalType": "uint256",
          "name": "_toTokenId",
          "type": "uint256"
        }
      ],
      "name": "BatchMetadataUpdate",
      "type": "event"
    },
    {
      "anonymous": false,
      "inputs": [
        {
          "indexed": false,
          "internalType": "uint256",
          "name": "_oldPrice",
          "type": "uint256"
        },
        {
          "indexed": false,
          "internalType": "uint256",
          "name": "_newPrice",
          "type": "uint256"
        }
      ],
      "name": "ChangePrice",
      "type": "event"
    },
    {
      "anonymous": false,
      "inputs": [
        {
          "indexed": false,
          "internalType": "uint64",
          "name": "version",
          "type": "uint64"
        }
      ],
      "name": "Initialized",
      "type": "event"
    },
    {
      "anonymous": false,
      "inputs": [
        {
          "indexed": false,
          "internalType": "uint256",
          "name": "_tokenId",
          "type": "uint256"
        }
      ],
      "name": "MetadataUpdate",
      "type": "event"
    },
    {
      "anonymous": false,
      "inputs": [
        {
          "indexed": true,
          "internalType": "address",
          "name": "previousOwner",
          "type": "address"
        },
        {
          "indexed": true,
          "internalType": "address",
          "name": "newOwner",
          "type": "address"
        }
      ],
      "name": "OwnershipTransferred",
      "type": "event"
    },
    {
      "anonymous": false,
      "inputs": [],
      "name": "Revealed",
      "type": "event"
    },
    {
      "anonymous": false,
      "inputs": [
        {
          "indexed": true,
          "internalType": "address",
          "name": "from",
          "type": "address"
        },
        {
          "indexed": true,
          "internalType": "address",
          "name": "to",
          "type": "address"
        },
        {
          "indexed": true,
          "internalType": "uint256",
          "name": "tokenId",
          "type": "uint256"
        }
      ],
      "name": "Transfer",
      "type": "event"
    },
    {
      "inputs": [],
      "name": "CANT_MINT",
      "outputs": [
        {
          "internalType": "string",
          "name": "",
          "type": "string"
        }
      ],
      "stateMutability": "view",
      "type": "function"
    },
    {
      "inputs": [],
      "name": "CANT_REVEAL",
      "outputs": [
        {
          "internalType": "string",
          "name": "",
          "type": "string"
        }
      ],
      "stateMutability": "view",
      "type": "function"
    },
    {
      "inputs": [],
      "name": "MAX_SUPPLY",
      "outputs": [
        {
          "internalType": "string",
          "name": "",
          "type": "string"
        }
      ],
      "stateMutability": "view",
      "type": "function"
    },
    {
      "inputs": [],
      "name": "PAY",
      "outputs": [
        {
          "internalType": "string",
          "name": "",
          "type": "string"
        }
      ],
      "stateMutability": "view",
      "type": "function"
    },
    {
      "inputs": [],
      "name": "URI",
      "outputs": [
        {
          "internalType": "string",
          "name": "",
          "type": "string"
        }
      ],
      "stateMutability": "view",
      "type": "function"
    },
    {
      "inputs": [
        {
          "internalType": "address",
          "name": "to",
          "type": "address"
        },
        {
          "internalType": "uint256",
          "name": "tokenId",
          "type": "uint256"
        }
      ],
      "name": "approve",
      "outputs": [],
      "stateMutability": "nonpayable",
      "type": "function"
    },
    {
      "inputs": [
        {
          "internalType": "address",
          "name": "owner",
          "type": "address"
        }
      ],
      "name": "balanceOf",
      "outputs": [
        {
          "internalType": "uint256",
          "name": "",
          "type": "uint256"
        }
      ],
      "stateMutability": "view",
      "type": "function"
    },
    {
      "inputs": [
        {
          "internalType": "uint256",
          "name": "_newPrice",
          "type": "uint256"
        }
      ],
      "name": "changePrice",
      "outputs": [],
      "stateMutability": "nonpayable",
      "type": "function"
    },
    {
      "inputs": [
        {
          "internalType": "uint256",
          "name": "tokenId",
          "type": "uint256"
        }
      ],
      "name": "getApproved",
      "outputs": [
        {
          "internalType": "address",
          "name": "",
          "type": "address"
        }
      ],
      "stateMutability": "view",
      "type": "function"
    },
    {
      "inputs": [
        {
          "components": [
            {
              "internalType": "uint256",
              "name": "maxS",
              "type": "uint256"
            },
            {
              "internalType": "uint256",
              "name": "price",
              "type": "uint256"
            },
            {
              "internalType": "uint256",
              "name": "maxAmount",
              "type": "uint256"
            },
            {
              "internalType": "uint96",
              "name": "royaltyAmount",
              "type": "uint96"
            },
            {
              "internalType": "address",
              "name": "initialOwner",
              "type": "address"
            },
            {
              "internalType": "address",
              "name": "royaltyReceiver",
              "type": "address"
            },
            {
              "internalType": "string",
              "name": "uri",
              "type": "string"
            },
            {
              "internalType": "string",
              "name": "notRevURI",
              "type": "string"
            },
            {
              "internalType": "string",
              "name": "name",
              "type": "string"
            },
            {
              "internalType": "string",
              "name": "symbol",
              "type": "string"
            },
            {
              "internalType": "bool",
              "name": "isRevealed",
              "type": "bool"
            },
            {
              "internalType": "bool",
              "name": "useRoyalties",
              "type": "bool"
            }
          ],
          "internalType": "struct NftCollection.InitializationParams",
          "name": "params",
          "type": "tuple"
        }
      ],
      "name": "initialize",
      "outputs": [],
      "stateMutability": "nonpayable",
      "type": "function"
    },
    {
      "inputs": [
        {
          "internalType": "address",
          "name": "owner",
          "type": "address"
        },
        {
          "internalType": "address",
          "name": "operator",
          "type": "address"
        }
      ],
      "name": "isApprovedForAll",
      "outputs": [
        {
          "internalType": "bool",
          "name": "",
          "type": "bool"
        }
      ],
      "stateMutability": "view",
      "type": "function"
    },
    {
      "inputs": [],
      "name": "maxSupply",
      "outputs": [
        {
          "internalType": "uint256",
          "name": "",
          "type": "uint256"
        }
      ],
      "stateMutability": "view",
      "type": "function"
    },
    {
      "inputs": [
        {
          "internalType": "uint256",
          "name": "amount",
          "type": "uint256"
        }
      ],
      "name": "mint",
      "outputs": [],
      "stateMutability": "payable",
      "type": "function"
    },
    {
      "inputs": [
        {
          "internalType": "address",
          "name": "who",
          "type": "address"
        },
        {
          "internalType": "uint256",
          "name": "amount",
          "type": "uint256"
        }
      ],
      "name": "mintByOwner",
      "outputs": [],
      "stateMutability": "nonpayable",
      "type": "function"
    },
    {
      "inputs": [],
      "name": "name",
      "outputs": [
        {
          "internalType": "string",
          "name": "",
          "type": "string"
        }
      ],
      "stateMutability": "view",
      "type": "function"
    },
    {
      "inputs": [],
      "name": "notRevealedUri",
      "outputs": [
        {
          "internalType": "string",
          "name": "",
          "type": "string"
        }
      ],
      "stateMutability": "view",
      "type": "function"
    },
    {
      "inputs": [],
      "name": "owner",
      "outputs": [
        {
          "internalType": "address",
          "name": "",
          "type": "address"
        }
      ],
      "stateMutability": "view",
      "type": "function"
    },
    {
      "inputs": [
        {
          "internalType": "uint256",
          "name": "tokenId",
          "type": "uint256"
        }
      ],
      "name": "ownerOf",
      "outputs": [
        {
          "internalType": "address",
          "name": "",
          "type": "address"
        }
      ],
      "stateMutability": "view",
      "type": "function"
    },
    {
      "inputs": [],
      "name": "price",
      "outputs": [
        {
          "internalType": "uint256",
          "name": "",
          "type": "uint256"
        }
      ],
      "stateMutability": "view",
      "type": "function"
    },
    {
      "inputs": [],
      "name": "renounceOwnership",
      "outputs": [],
      "stateMutability": "nonpayable",
      "type": "function"
    },
    {
      "inputs": [],
      "name": "revealCollection",
      "outputs": [],
      "stateMutability": "nonpayable",
      "type": "function"
    },
    {
      "inputs": [],
      "name": "revealed",
      "outputs": [
        {
          "internalType": "bool",
          "name": "",
          "type": "bool"
        }
      ],
      "stateMutability": "view",
      "type": "function"
    },
    {
      "inputs": [
        {
          "internalType": "uint256",
          "name": "tokenId",
          "type": "uint256"
        },
        {
          "internalType": "uint256",
          "name": "salePrice",
          "type": "uint256"
        }
      ],
      "name": "royaltyInfo",
      "outputs": [
        {
          "internalType": "address",
          "name": "",
          "type": "address"
        },
        {
          "internalType": "uint256",
          "name": "",
          "type": "uint256"
        }
      ],
      "stateMutability": "view",
      "type": "function"
    },
    {
      "inputs": [
        {
          "internalType": "address",
          "name": "from",
          "type": "address"
        },
        {
          "internalType": "address",
          "name": "to",
          "type": "address"
        },
        {
          "internalType": "uint256",
          "name": "tokenId",
          "type": "uint256"
        }
      ],
      "name": "safeTransferFrom",
      "outputs": [],
      "stateMutability": "nonpayable",
      "type": "function"
    },
    {
      "inputs": [
        {
          "internalType": "address",
          "name": "from",
          "type": "address"
        },
        {
          "internalType": "address",
          "name": "to",
          "type": "address"
        },
        {
          "internalType": "uint256",
          "name": "tokenId",
          "type": "uint256"
        },
        {
          "internalType": "bytes",
          "name": "data",
          "type": "bytes"
        }
      ],
      "name": "safeTransferFrom",
      "outputs": [],
      "stateMutability": "nonpayable",
      "type": "function"
    },
    {
      "inputs": [
        {
          "internalType": "address",
          "name": "operator",
          "type": "address"
        },
        {
          "internalType": "bool",
          "name": "approved",
          "type": "bool"
        }
      ],
      "name": "setApprovalForAll",
      "outputs": [],
      "stateMutability": "nonpayable",
      "type": "function"
    },
    {
      "inputs": [
        {
          "internalType": "bytes4",
          "name": "interfaceId",
          "type": "bytes4"
        }
      ],
      "name": "supportsInterface",
      "outputs": [
        {
          "internalType": "bool",
          "name": "",
          "type": "bool"
        }
      ],
      "stateMutability": "view",
      "type": "function"
    },
    {
      "inputs": [],
      "name": "symbol",
      "outputs": [
        {
          "internalType": "string",
          "name": "",
          "type": "string"
        }
      ],
      "stateMutability": "view",
      "type": "function"
    },
    {
      "inputs": [
        {
          "internalType": "uint256",
          "name": "_tokenId",
          "type": "uint256"
        }
      ],
      "name": "tokenURI",
      "outputs": [
        {
          "internalType": "string",
          "name": "",
          "type": "string"
        }
      ],
      "stateMutability": "view",
      "type": "function"
    },
    {
      "inputs": [],
      "name": "totalSupply",
      "outputs": [
        {
          "internalType": "uint256",
          "name": "",
          "type": "uint256"
        }
      ],
      "stateMutability": "view",
      "type": "function"
    },
    {
      "inputs": [
        {
          "internalType": "address",
          "name": "from",
          "type": "address"
        },
        {
          "internalType": "address",
          "name": "to",
          "type": "address"
        },
        {
          "internalType": "uint256",
          "name": "tokenId",
          "type": "uint256"
        }
      ],
      "name": "transferFrom",
      "outputs": [],
      "stateMutability": "nonpayable",
      "type": "function"
    },
    {
      "inputs": [
        {
          "internalType": "address",
          "name": "newOwner",
          "type": "address"
        }
      ],
      "name": "transferOwnership",
      "outputs": [],
      "stateMutability": "nonpayable",
      "type": "function"
    },
    {
      "inputs": [],
      "name": "uriSuffix",
      "outputs": [
        {
          "internalType": "string",
          "name": "",
          "type": "string"
        }
      ],
      "stateMutability": "view",
      "type": "function"
    },
    {
      "inputs": [],
      "name": "withdraw",
      "outputs": [],
      "stateMutability": "nonpayable",
      "type": "function"
    }
  ],
  "bytecode": {
    "object": "0x60c06040526005608090815264173539b7b760d91b60a052600690620000269082620001a0565b503480156200003457600080fd5b506200003f62000045565b6200026c565b7ff0c57e16840df040f15088dc2f81fe391c3923bec73e23a9662efc9c229c6a00805468010000000000000000900460ff1615620000965760405163f92ee8a960e01b815260040160405180910390fd5b80546001600160401b0390811614620000f65780546001600160401b0319166001600160401b0390811782556040519081527fc7f505b2f371ae2175ee4913f4499e1f2633a7b5936321eed1cdaeb6115181d29060200160405180910390a15b50565b634e487b7160e01b600052604160045260246000fd5b600181811c908216806200012457607f821691505b6020821081036200014557634e487b7160e01b600052602260045260246000fd5b50919050565b601f8211156200019b576000816000526020600020601f850160051c81016020861015620001765750805b601f850160051c820191505b81811015620001975782815560010162000182565b5050505b505050565b81516001600160401b03811115620001bc57620001bc620000f9565b620001d481620001cd84546200010f565b846200014b565b602080601f8311600181146200020c5760008415620001f35750858301515b600019600386901b1c1916600185901b17855562000197565b600085815260208120601f198616915b828110156200023d578886015182559484019460019091019084016200021c565b50858210156200025c5787850151600019600388901b60f8161c191681555b5050505050600190811b01905550565b6123dd806200027c6000396000f3fe6080604052600436106101f95760003560e01c80636352211e1161010d578063a22cb465116100a0578063c87b56dd1161006f578063c87b56dd14610557578063d5abeb0114610577578063e6dba9981461058c578063e985e9c5146105a1578063f2fde38b146105c157600080fd5b8063a22cb465146104e2578063a2b40d1914610502578063b88d4fde14610522578063bd5e1e221461054257600080fd5b80638da5cb5b116100dc5780638da5cb5b1461048f57806395d89b41146104a4578063a035b1fe146104b9578063a0712d68146104cf57600080fd5b80636352211e1461042557806370a0823114610445578063715018a61461046557806372e7ef291461047a57600080fd5b806323b872dd116101905780633ccfd60b1161015f5780633ccfd60b146103ac57806340d0b4a9146103c157806342842e0e146103d657806351830227146103f65780635503a0e81461041057600080fd5b806323b872dd146103185780632a55205a1461033857806332cb6b0c146103775780633542aee21461038c57600080fd5b8063095ea7b3116101cc578063095ea7b3146102a25780630e7bf8bf146102c45780631141d7de146102e457806318160ddd146102f957600080fd5b806301ffc9a7146101fe57806306fdde0314610233578063081812fc14610255578063081c8c441461028d575b600080fd5b34801561020a57600080fd5b5061021e610219366004611b9d565b6105e1565b60405190151581526020015b60405180910390f35b34801561023f57600080fd5b506102486105f2565b60405161022a9190611c0a565b34801561026157600080fd5b50610275610270366004611c1d565b610696565b6040516001600160a01b03909116815260200161022a565b34801561029957600080fd5b506102486106ab565b3480156102ae57600080fd5b506102c26102bd366004611c52565b610739565b005b3480156102d057600080fd5b506102c26102df366004611d79565b610748565b3480156102f057600080fd5b50610248610933565b34801561030557600080fd5b506001545b60405190815260200161022a565b34801561032457600080fd5b506102c2610333366004611ed2565b610940565b34801561034457600080fd5b50610358610353366004611f0e565b6109cb565b604080516001600160a01b03909316835260208301919091520161022a565b34801561038357600080fd5b50610248610ab9565b34801561039857600080fd5b506102c26103a7366004611c52565b610ad5565b3480156103b857600080fd5b506102c2610b59565b3480156103cd57600080fd5b506102c2610bf6565b3480156103e257600080fd5b506102c26103f1366004611ed2565b610c77565b34801561040257600080fd5b5060075461021e9060ff1681565b34801561041c57600080fd5b50610248610c97565b34801561043157600080fd5b50610275610440366004611c1d565b610ca4565b34801561045157600080fd5b5061030a610460366004611f30565b610caf565b34801561047157600080fd5b506102c2610d0b565b34801561048657600080fd5b50610248610d1f565b34801561049b57600080fd5b50610275610d3b565b3480156104b057600080fd5b50610248610d69565b3480156104c557600080fd5b5061030a60005481565b6102c26104dd366004611c1d565b610da8565b3480156104ee57600080fd5b506102c26104fd366004611f4b565b610e6e565b34801561050e57600080fd5b506102c261051d366004611c1d565b610e79565b34801561052e57600080fd5b506102c261053d366004611f7e565b610ec6565b34801561054e57600080fd5b50610248610edd565b34801561056357600080fd5b50610248610572366004611c1d565b610ef9565b34801561058357600080fd5b5060025461030a565b34801561059857600080fd5b50610248611088565b3480156105ad57600080fd5b5061021e6105bc366004611ffa565b6110a4565b3480156105cd57600080fd5b506102c26105dc366004611f30565b6110f1565b60006105ec8261112f565b92915050565b600080516020612309833981519152805460609190819061061290612024565b80601f016020809104026020016040519081016040528092919081815260200182805461063e90612024565b801561068b5780601f106106605761010080835404028352916020019161068b565b820191906000526020600020905b81548152906001019060200180831161066e57829003601f168201915b505050505091505090565b60006106a182611154565b506105ec8261118c565b600580546106b890612024565b80601f01602080910402602001604051908101604052809291908181526020018280546106e490612024565b80156107315780601f1061070657610100808354040283529160200191610731565b820191906000526020600020905b81548152906001019060200180831161071457829003601f168201915b505050505081565b6107448282336111c6565b5050565b7ff0c57e16840df040f15088dc2f81fe391c3923bec73e23a9662efc9c229c6a008054600160401b810460ff16159067ffffffffffffffff1660008115801561078e5750825b905060008267ffffffffffffffff1660011480156107ab5750303b155b9050811580156107b9575080155b156107d75760405163f92ee8a960e01b815260040160405180910390fd5b845467ffffffffffffffff19166001178555831561080157845460ff60401b1916600160401b1785555b6108158661010001518761012001516111d3565b61081d6111e5565b61082a86608001516111ed565b6108326111e5565b8551600110610876576040518060600160405280602681526020016123296026913960405162461bcd60e51b815260040161086d9190611c0a565b60405180910390fd5b60c086015160049061088890826120a6565b5060e086015160059061089b90826120a6565b506101408601516007805460ff1916911515919091179055604086015160035585516002556020860151600055610160860151156108e5576108e58660a0015187606001516111fe565b831561092b57845460ff60401b19168555604051600181527fc7f505b2f371ae2175ee4913f4499e1f2633a7b5936321eed1cdaeb6115181d29060200160405180910390a15b505050505050565b600480546106b890612024565b6001600160a01b03821661096a57604051633250574960e11b81526000600482015260240161086d565b60006109778383336112c1565b9050836001600160a01b0316816001600160a01b0316146109c5576040516364283d7b60e01b81526001600160a01b038086166004830152602482018490528216604482015260640161086d565b50505050565b60008281527fdaedc9ab023613a7caf35e703657e986ccfad7e3eb0af93a2853f8d65dd86b01602090815260408083208151808301909252546001600160a01b038116808352600160a01b9091046001600160601b03169282019290925282917fdaedc9ab023613a7caf35e703657e986ccfad7e3eb0af93a2853f8d65dd86b009190610a8157506040805180820190915281546001600160a01b0381168252600160a01b90046001600160601b031660208201525b602081015160009061271090610aa0906001600160601b03168861217c565b610aaa9190612193565b91519791965090945050505050565b6040518060600160405280602681526020016123296026913981565b610add6113cb565b6000610ae883610caf565b90506000600354118015610b065750600354610b0483836121b5565b115b15610b3d576040518060600160405280602a81526020016122df602a913960405162461bcd60e51b815260040161086d9190611c0a565b60005b828110156109c557610b51846113fd565b600101610b40565b610b616113cb565b476000610b6c610d3b565b6001600160a01b03168260405160006040518083038185875af1925050503d8060008114610bb6576040519150601f19603f3d011682016040523d82523d6000602084013e610bbb565b606091505b5050905080610744576040518060600160405280602281526020016123866022913960405162461bcd60e51b815260040161086d9190611c0a565b610bfe6113cb565b60075460ff161515600103610c3f5760405180606001604052806037815260200161234f6037913960405162461bcd60e51b815260040161086d9190611c0a565b6007805460ff191660011790556040517fe2a7169cedebe39671840370ae19ca4fc41be6191d4c77f174f189a4d8cd08c890600090a1565b610c9283838360405180602001604052806000815250610ec6565b505050565b600680546106b890612024565b60006105ec82611154565b60006000805160206123098339815191526001600160a01b038316610cea576040516322718ad960e21b81526000600482015260240161086d565b6001600160a01b039092166000908152600390920160205250604090205490565b610d136113cb565b610d1d600061145b565b565b6040518060600160405280602281526020016123866022913981565b7f9016d09d72d40fdae2fd8ceac6b6234c7706214fd39c1cd1e609a0528c199300546001600160a01b031690565b7f80bb2b638cc20bc4d0a60d66940f3ab4a00c1d7b313497ca82fb0b4ab007930180546060916000805160206123098339815191529161061290612024565b60008054610db6908361217c565b90506000610dc333610caf565b90506000600354118015610de15750600354610ddf84836121b5565b115b15610e18576040518060600160405280602a81526020016122df602a913960405162461bcd60e51b815260040161086d9190611c0a565b81341015610e52576040518060600160405280602281526020016123866022913960405162461bcd60e51b815260040161086d9190611c0a565b60005b838110156109c557610e66336113fd565b600101610e55565b6107443383836114cc565b610e816113cb565b600080549082905560408051828152602081018490527f7a23754ec05fb9abcc146d222035598f3cf9aac8c35fe1c74b08f0b7717713a4910160405180910390a15050565b610ed1848484610940565b6109c58484848461157d565b60405180606001604052806037815260200161234f6037913981565b6060610f0482611154565b5060075460ff161515600003610fa65760058054610f2190612024565b80601f0160208091040260200160405190810160405280929190818152602001828054610f4d90612024565b8015610f9a5780601f10610f6f57610100808354040283529160200191610f9a565b820191906000526020600020905b815481529060010190602001808311610f7d57829003601f168201915b50505050509050919050565b600060048054610fb590612024565b80601f0160208091040260200160405190810160405280929190818152602001828054610fe190612024565b801561102e5780601f106110035761010080835404028352916020019161102e565b820191906000526020600020905b81548152906001019060200180831161101157829003601f168201915b5050505050905060008151116110535760405180602001604052806000815250611081565b8061105d846116a6565b6006604051602001611071939291906121c8565b6040516020818303038152906040525b9392505050565b6040518060600160405280602a81526020016122df602a913981565b6001600160a01b0391821660009081527f80bb2b638cc20bc4d0a60d66940f3ab4a00c1d7b313497ca82fb0b4ab00793056020908152604080832093909416825291909152205460ff1690565b6110f96113cb565b6001600160a01b03811661112357604051631e4fbdf760e01b81526000600482015260240161086d565b61112c8161145b565b50565b60006001600160e01b0319821663152a902d60e11b14806105ec57506105ec82611739565b6000806111608361175e565b90506001600160a01b0381166105ec57604051637e27328960e01b81526004810184905260240161086d565b60009081527f80bb2b638cc20bc4d0a60d66940f3ab4a00c1d7b313497ca82fb0b4ab007930460205260409020546001600160a01b031690565b610c928383836001611798565b6111db6118ae565b61074482826118f7565b610d1d6118ae565b6111f56118ae565b61112c81611928565b7fdaedc9ab023613a7caf35e703657e986ccfad7e3eb0af93a2853f8d65dd86b006127106001600160601b03831681101561125e57604051636f483d0960e01b81526001600160601b03841660048201526024810182905260440161086d565b6001600160a01b03841661128857604051635b6cc80560e11b81526000600482015260240161086d565b50604080518082019091526001600160a01b039093168084526001600160601b039092166020909301839052600160a01b909202179055565b6000600080516020612309833981519152816112dc8561175e565b90506001600160a01b038416156112f8576112f8818587611930565b6001600160a01b0381161561133857611315600086600080611798565b6001600160a01b0381166000908152600383016020526040902080546000190190555b6001600160a01b03861615611369576001600160a01b03861660009081526003830160205260409020805460010190555b600085815260028301602052604080822080546001600160a01b0319166001600160a01b038a811691821790925591518893918516917fddf252ad1be2c89b69c2b068fc378daa952ba7f163c4a11628f55a4df523b3ef91a495945050505050565b336113d4610d3b565b6001600160a01b031614610d1d5760405163118cdaa760e01b815233600482015260240161086d565b6002546001540361143a576040518060600160405280602a81526020016122df602a913960405162461bcd60e51b815260040161086d9190611c0a565b600180546000918261144b8361226b565b9190505590506107448282611994565b7f9016d09d72d40fdae2fd8ceac6b6234c7706214fd39c1cd1e609a0528c19930080546001600160a01b031981166001600160a01b03848116918217845560405192169182907f8be0079c531659141344cd1fd0a4f28419497f9722a3daafe3b4186f6b6457e090600090a3505050565b6000805160206123098339815191526001600160a01b03831661150d57604051630b61174360e31b81526001600160a01b038416600482015260240161086d565b6001600160a01b038481166000818152600584016020908152604080832094881680845294825291829020805460ff191687151590811790915591519182527f17307eab39ab6107e8899845ad3d59bd9653f200f220920489ca2b5937696c31910160405180910390a350505050565b6001600160a01b0383163b156109c557604051630a85bd0160e11b81526001600160a01b0384169063150b7a02906115bf903390889087908790600401612284565b6020604051808303816000875af19250505080156115fa575060408051601f3d908101601f191682019092526115f7918101906122c1565b60015b611663573d808015611628576040519150601f19603f3d011682016040523d82523d6000602084013e61162d565b606091505b50805160000361165b57604051633250574960e11b81526001600160a01b038516600482015260240161086d565b805181602001fd5b6001600160e01b03198116630a85bd0160e11b1461169f57604051633250574960e11b81526001600160a01b038516600482015260240161086d565b5050505050565b606060006116b3836119f9565b600101905060008167ffffffffffffffff8111156116d3576116d3611c7c565b6040519080825280601f01601f1916602001820160405280156116fd576020820181803683370190505b5090508181016020015b600019016f181899199a1a9b1b9c1cb0b131b232b360811b600a86061a8153600a850494508461170757509392505050565b60006001600160e01b03198216632483248360e11b14806105ec57506105ec82611ad1565b60009081527f80bb2b638cc20bc4d0a60d66940f3ab4a00c1d7b313497ca82fb0b4ab007930260205260409020546001600160a01b031690565b60008051602061230983398151915281806117bb57506001600160a01b03831615155b1561187d5760006117cb85611154565b90506001600160a01b038416158015906117f75750836001600160a01b0316816001600160a01b031614155b801561180a575061180881856110a4565b155b156118335760405163a9fbf51f60e01b81526001600160a01b038516600482015260240161086d565b821561187b5784866001600160a01b0316826001600160a01b03167f8c5be1e5ebec7d5bd14f71427d1e84f3dd0314c0f7b2291e5b200ac8c7c3b92560405160405180910390a45b505b600093845260040160205250506040902080546001600160a01b0319166001600160a01b0392909216919091179055565b7ff0c57e16840df040f15088dc2f81fe391c3923bec73e23a9662efc9c229c6a0054600160401b900460ff16610d1d57604051631afcd79f60e31b815260040160405180910390fd5b6118ff6118ae565b6000805160206123098339815191528061191984826120a6565b50600181016109c583826120a6565b6110f96118ae565b61193b838383611b21565b610c92576001600160a01b03831661196957604051637e27328960e01b81526004810182905260240161086d565b60405163177e802f60e01b81526001600160a01b03831660048201526024810182905260440161086d565b6001600160a01b0382166119be57604051633250574960e11b81526000600482015260240161086d565b60006119cc838360006112c1565b90506001600160a01b03811615610c92576040516339e3563760e11b81526000600482015260240161086d565b60008072184f03e93ff9f4daa797ed6e38ed64bf6a1f0160401b8310611a385772184f03e93ff9f4daa797ed6e38ed64bf6a1f0160401b830492506040015b6d04ee2d6d415b85acef81000000008310611a64576d04ee2d6d415b85acef8100000000830492506020015b662386f26fc100008310611a8257662386f26fc10000830492506010015b6305f5e1008310611a9a576305f5e100830492506008015b6127108310611aae57612710830492506004015b60648310611ac0576064830492506002015b600a83106105ec5760010192915050565b60006001600160e01b031982166380ac58cd60e01b1480611b0257506001600160e01b03198216635b5e139f60e01b145b806105ec57506301ffc9a760e01b6001600160e01b03198316146105ec565b60006001600160a01b03831615801590611b7f5750826001600160a01b0316846001600160a01b03161480611b5b5750611b5b84846110a4565b80611b7f5750826001600160a01b0316611b748361118c565b6001600160a01b0316145b949350505050565b6001600160e01b03198116811461112c57600080fd5b600060208284031215611baf57600080fd5b813561108181611b87565b60005b83811015611bd5578181015183820152602001611bbd565b50506000910152565b60008151808452611bf6816020860160208601611bba565b601f01601f19169290920160200192915050565b6020815260006110816020830184611bde565b600060208284031215611c2f57600080fd5b5035919050565b80356001600160a01b0381168114611c4d57600080fd5b919050565b60008060408385031215611c6557600080fd5b611c6e83611c36565b946020939093013593505050565b634e487b7160e01b600052604160045260246000fd5b604051610180810167ffffffffffffffff81118282101715611cb657611cb6611c7c565b60405290565b80356001600160601b0381168114611c4d57600080fd5b600067ffffffffffffffff80841115611cee57611cee611c7c565b604051601f8501601f19908116603f01168101908282118183101715611d1657611d16611c7c565b81604052809350858152868686011115611d2f57600080fd5b858560208301376000602087830101525050509392505050565b600082601f830112611d5a57600080fd5b61108183833560208501611cd3565b80358015158114611c4d57600080fd5b600060208284031215611d8b57600080fd5b813567ffffffffffffffff80821115611da357600080fd5b908301906101808286031215611db857600080fd5b611dc0611c92565b823581526020830135602082015260408301356040820152611de460608401611cbc565b6060820152611df560808401611c36565b6080820152611e0660a08401611c36565b60a082015260c083013582811115611e1d57600080fd5b611e2987828601611d49565b60c08301525060e083013582811115611e4157600080fd5b611e4d87828601611d49565b60e0830152506101008084013583811115611e6757600080fd5b611e7388828701611d49565b8284015250506101208084013583811115611e8d57600080fd5b611e9988828701611d49565b8284015250506101409150611eaf828401611d69565b828201526101609150611ec3828401611d69565b91810191909152949350505050565b600080600060608486031215611ee757600080fd5b611ef084611c36565b9250611efe60208501611c36565b9150604084013590509250925092565b60008060408385031215611f2157600080fd5b50508035926020909101359150565b600060208284031215611f4257600080fd5b61108182611c36565b60008060408385031215611f5e57600080fd5b611f6783611c36565b9150611f7560208401611d69565b90509250929050565b60008060008060808587031215611f9457600080fd5b611f9d85611c36565b9350611fab60208601611c36565b925060408501359150606085013567ffffffffffffffff811115611fce57600080fd5b8501601f81018713611fdf57600080fd5b611fee87823560208401611cd3565b91505092959194509250565b6000806040838503121561200d57600080fd5b61201683611c36565b9150611f7560208401611c36565b600181811c9082168061203857607f821691505b60208210810361205857634e487b7160e01b600052602260045260246000fd5b50919050565b601f821115610c92576000816000526020600020601f850160051c810160208610156120875750805b601f850160051c820191505b8181101561092b57828155600101612093565b815167ffffffffffffffff8111156120c0576120c0611c7c565b6120d4816120ce8454612024565b8461205e565b602080601f83116001811461210957600084156120f15750858301515b600019600386901b1c1916600185901b17855561092b565b600085815260208120601f198616915b8281101561213857888601518255948401946001909101908401612119565b50858210156121565787850151600019600388901b60f8161c191681555b5050505050600190811b01905550565b634e487b7160e01b600052601160045260246000fd5b80820281158282048414176105ec576105ec612166565b6000826121b057634e487b7160e01b600052601260045260246000fd5b500490565b808201808211156105ec576105ec612166565b6000845160206121dc828560208a01611bba565b8551918401916121f0818460208a01611bba565b855492019160009061220181612024565b60018281168015612219576001811461222e5761225b565b60ff198416875282151583028701945061225b565b89600052602060002060005b848110156122535781548982015290830190870161223a565b505082870194505b50929a9950505050505050505050565b60006001820161227d5761227d612166565b5060010190565b6001600160a01b03858116825284166020820152604081018390526080606082018190526000906122b790830184611bde565b9695505050505050565b6000602082840312156122d357600080fd5b815161108181611b8756fe45524337323120436f6c6c656374696f6e3a2043616e2774206d696e74206d6f726520746f6b656e732180bb2b638cc20bc4d0a60d66940f3ab4a00c1d7b313497ca82fb0b4ab007930045524337323120436f6c6c656374696f6e3a204d617820737570706c7920746f6f206c6f772145524337323120436f6c6c656374696f6e3a205468697320636f6c6c656374696f6e20697320616c72656164792072657665616c65642145524337323120436f6c6c656374696f6e3a204e6f7420656e6f7567682045544821a26469706673582212205a36c685bb9711f18a515bea04a05a21a9b6455b8b611c06a621017feb53b26664736f6c63430008170033",
    "linkReferences": {}
  },
  "methodIdentifiers": {
    "CANT_MINT()": "e6dba998",
    "CANT_REVEAL()": "bd5e1e22",
    "MAX_SUPPLY()": "32cb6b0c",
    "PAY()": "72e7ef29",
    "URI()": "1141d7de",
    "approve(address,uint256)": "095ea7b3",
    "balanceOf(address)": "70a08231",
    "changePrice(uint256)": "a2b40d19",
    "getApproved(uint256)": "081812fc",
    "initialize((uint256,uint256,uint256,uint96,address,address,string,string,string,string,bool,bool))": "0e7bf8bf",
    "isApprovedForAll(address,address)": "e985e9c5",
    "maxSupply()": "d5abeb01",
    "mint(uint256)": "a0712d68",
    "mintByOwner(address,uint256)": "3542aee2",
    "name()": "06fdde03",
    "notRevealedUri()": "081c8c44",
    "owner()": "8da5cb5b",
    "ownerOf(uint256)": "6352211e",
    "price()": "a035b1fe",
    "renounceOwnership()": "715018a6",
    "revealCollection()": "40d0b4a9",
    "revealed()": "51830227",
    "royaltyInfo(uint256,uint256)": "2a55205a",
    "safeTransferFrom(address,address,uint256)": "42842e0e",
    "safeTransferFrom(address,address,uint256,bytes)": "b88d4fde",
    "setApprovalForAll(address,bool)": "a22cb465",
    "supportsInterface(bytes4)": "01ffc9a7",
    "symbol()": "95d89b41",
    "tokenURI(uint256)": "c87b56dd",
    "totalSupply()": "18160ddd",
    "transferFrom(address,address,uint256)": "23b872dd",
    "transferOwnership(address)": "f2fde38b",
    "uriSuffix()": "5503a0e8",
    "withdraw()": "3ccfd60b"
  },
  "id": 19
}