{
  "abi": [
    {
      "inputs": [
        {
          "internalType": "uint256",
          "name": "_singleNftFee",
          "type": "uint256"
        },
        {
          "internalType": "uint256",
          "name": "_collectionFee",
          "type": "uint256"
        },
        {
          "internalType": "address",
          "name": "_singleNftImplementation",
          "type": "address"
        },
        {
          "internalType": "address",
          "name": "_collectionImplementation",
          "type": "address"
        }
      ],
      "stateMutability": "nonpayable",
      "type": "constructor"
    },
    {
      "inputs": [],
      "name": "ERC1167FailedCreateClone",
      "type": "error"
    },
    {
      "inputs": [
        {
          "internalType": "address",
          "name": "owner",
          "type": "address"
        }
      ],
      "name": "OwnableInvalidOwner",
      "type": "error"
    },
    {
      "inputs": [
        {
          "internalType": "address",
          "name": "account",
          "type": "address"
        }
      ],
      "name": "OwnableUnauthorizedAccount",
      "type": "error"
    },
    {
      "anonymous": false,
      "inputs": [
        {
          "indexed": true,
          "internalType": "address",
          "name": "nft",
          "type": "address"
        }
      ],
      "name": "Nft_Created",
      "type": "event"
    },
    {
      "anonymous": false,
      "inputs": [
        {
          "indexed": true,
          "internalType": "address",
          "name": "previousOwner",
          "type": "address"
        },
        {
          "indexed": true,
          "internalType": "address",
          "name": "newOwner",
          "type": "address"
        }
      ],
      "name": "OwnershipTransferred",
      "type": "event"
    },
    {
      "inputs": [],
      "name": "PAY",
      "outputs": [
        {
          "internalType": "string",
          "name": "",
          "type": "string"
        }
      ],
      "stateMutability": "view",
      "type": "function"
    },
    {
      "inputs": [],
      "name": "collectionFee",
      "outputs": [
        {
          "internalType": "uint256",
          "name": "",
          "type": "uint256"
        }
      ],
      "stateMutability": "view",
      "type": "function"
    },
    {
      "inputs": [],
      "name": "collectionImplementation",
      "outputs": [
        {
          "internalType": "address",
          "name": "",
          "type": "address"
        }
      ],
      "stateMutability": "view",
      "type": "function"
    },
    {
      "inputs": [
        {
          "internalType": "uint256",
          "name": "",
          "type": "uint256"
        }
      ],
      "name": "collections",
      "outputs": [
        {
          "internalType": "address",
          "name": "",
          "type": "address"
        }
      ],
      "stateMutability": "view",
      "type": "function"
    },
    {
      "inputs": [],
      "name": "collectionsLaunched",
      "outputs": [
        {
          "internalType": "uint256",
          "name": "",
          "type": "uint256"
        }
      ],
      "stateMutability": "view",
      "type": "function"
    },
    {
      "inputs": [
        {
          "internalType": "uint256",
          "name": "_maxS",
          "type": "uint256"
        },
        {
          "internalType": "uint256",
          "name": "_price",
          "type": "uint256"
        },
        {
          "internalType": "uint256",
          "name": "_maxAmount",
          "type": "uint256"
        },
        {
          "internalType": "string",
          "name": "uri",
          "type": "string"
        },
        {
          "internalType": "string",
          "name": "notRevURI",
          "type": "string"
        },
        {
          "internalType": "string",
          "name": "_name",
          "type": "string"
        },
        {
          "internalType": "string",
          "name": "_symbol",
          "type": "string"
        },
        {
          "internalType": "bool",
          "name": "isRevealed",
          "type": "bool"
        }
      ],
      "name": "createCollection",
      "outputs": [
        {
          "internalType": "address",
          "name": "",
          "type": "address"
        }
      ],
      "stateMutability": "payable",
      "type": "function"
    },
    {
      "inputs": [
        {
          "internalType": "string",
          "name": "_name",
          "type": "string"
        },
        {
          "internalType": "string",
          "name": "_symbol",
          "type": "string"
        },
        {
          "internalType": "string",
          "name": "_uri",
          "type": "string"
        }
      ],
      "name": "createSingleNft",
      "outputs": [
        {
          "internalType": "address",
          "name": "",
          "type": "address"
        }
      ],
      "stateMutability": "payable",
      "type": "function"
    },
    {
      "inputs": [],
      "name": "owner",
      "outputs": [
        {
          "internalType": "address",
          "name": "",
          "type": "address"
        }
      ],
      "stateMutability": "view",
      "type": "function"
    },
    {
      "inputs": [],
      "name": "renounceOwnership",
      "outputs": [],
      "stateMutability": "nonpayable",
      "type": "function"
    },
    {
      "inputs": [],
      "name": "singleNftFee",
      "outputs": [
        {
          "internalType": "uint256",
          "name": "",
          "type": "uint256"
        }
      ],
      "stateMutability": "view",
      "type": "function"
    },
    {
      "inputs": [],
      "name": "singleNftImplementation",
      "outputs": [
        {
          "internalType": "address",
          "name": "",
          "type": "address"
        }
      ],
      "stateMutability": "view",
      "type": "function"
    },
    {
      "inputs": [],
      "name": "singleNftsLaunched",
      "outputs": [
        {
          "internalType": "uint256",
          "name": "",
          "type": "uint256"
        }
      ],
      "stateMutability": "view",
      "type": "function"
    },
    {
      "inputs": [
        {
          "internalType": "address",
          "name": "newOwner",
          "type": "address"
        }
      ],
      "name": "transferOwnership",
      "outputs": [],
      "stateMutability": "nonpayable",
      "type": "function"
    },
    {
      "inputs": [
        {
          "internalType": "address",
          "name": "",
          "type": "address"
        },
        {
          "internalType": "uint256",
          "name": "",
          "type": "uint256"
        }
      ],
      "name": "userToCollection",
      "outputs": [
        {
          "internalType": "address",
          "name": "",
          "type": "address"
        }
      ],
      "stateMutability": "view",
      "type": "function"
    },
    {
      "inputs": [
        {
          "internalType": "address",
          "name": "",
          "type": "address"
        },
        {
          "internalType": "uint256",
          "name": "",
          "type": "uint256"
        }
      ],
      "name": "userToSingleNft",
      "outputs": [
        {
          "internalType": "address",
          "name": "",
          "type": "address"
        }
      ],
      "stateMutability": "view",
      "type": "function"
    },
    {
      "inputs": [],
      "name": "withdrawFees",
      "outputs": [],
      "stateMutability": "nonpayable",
      "type": "function"
    }
  ],
  "bytecode": {
    "object": "0x608060405234801561001057600080fd5b50604051610e52380380610e5283398101604081905261002f91610105565b338061005557604051631e4fbdf760e01b81526000600482015260240160405180910390fd5b61005e81610099565b50600680546001600160a01b039384166001600160a01b0319918216179091556007805492909316911617905560049190915560055561014b565b600080546001600160a01b038381166001600160a01b0319831681178455604051919092169283917f8be0079c531659141344cd1fd0a4f28419497f9722a3daafe3b4186f6b6457e09190a35050565b80516001600160a01b038116811461010057600080fd5b919050565b6000806000806080858703121561011b57600080fd5b8451935060208501519250610132604086016100e9565b9150610140606086016100e9565b905092959194509250565b610cf88061015a6000396000f3fe6080604052600436106100f35760003560e01c8063715018a61161008a578063e1995fd111610059578063e1995fd11461024d578063e29097871461026d578063f2fde38b1461028d578063fdbda0ec146102ad57600080fd5b8063715018a6146101e557806372e7ef29146101fa578063863002e71461021c5780638da5cb5b1461022f57600080fd5b8063476343ee116100c6578063476343ee1461018f5780634d6f3dee146101a6578063535f8d01146101b95780636ada44c7146101cf57600080fd5b80630f3b901f146100f857806326c82ebb146101355780632880060e14610155578063393bb46514610179575b600080fd5b34801561010457600080fd5b50600754610118906001600160a01b031681565b6040516001600160a01b0390911681526020015b60405180910390f35b34801561014157600080fd5b50610118610150366004610885565b6102e3565b34801561016157600080fd5b5061016b60035481565b60405190815260200161012c565b34801561018557600080fd5b5061016b60025481565b34801561019b57600080fd5b506101a461031b565b005b6101186101b4366004610962565b6103b6565b3480156101c557600080fd5b5061016b60045481565b3480156101db57600080fd5b5061016b60055481565b3480156101f157600080fd5b506101a461055b565b34801561020657600080fd5b5061020f61056f565b60405161012c9190610a8d565b61011861022a366004610aa7565b61058b565b34801561023b57600080fd5b506000546001600160a01b0316610118565b34801561025957600080fd5b50610118610268366004610885565b610721565b34801561027957600080fd5b50600654610118906001600160a01b031681565b34801561029957600080fd5b506101a46102a8366004610b2f565b61073d565b3480156102b957600080fd5b506101186102c8366004610b4a565b6008602052600090815260409020546001600160a01b031681565b600960205281600052604060002081815481106102ff57600080fd5b6000918252602090912001546001600160a01b03169150829050565b610323610778565b604051600090339047908381818185875af1925050503d8060008114610365576040519150601f19603f3d011682016040523d82523d6000602084013e61036a565b606091505b50509050806103b35760405162461bcd60e51b815260206004820152601060248201526f2a3930b739b332b9103330b4b632b21760811b60448201526064015b60405180910390fd5b50565b60006004546000141580156103cc575060045434105b1561040357604051806060016040528060228152602001610ca16022913960405162461bcd60e51b81526004016103aa9190610a8d565b600060015485853360405160200161041e9493929190610b63565b60408051601f198184030181529190528051602090910120600754909150600090610452906001600160a01b0316836107a5565b60405163219dfdf960e11b81529091506001600160a01b0382169063433bfbf290610491908e908e908e9033908f908f908f908f908f90600401610bc1565b600060405180830381600087803b1580156104ab57600080fd5b505af11580156104bf573d6000803e3d6000fd5b5050336000908152600a602090815260408083208054600181810183559185528385200180546001600160a01b0389166001600160a01b0319918216811790925582548652600890945282852080549094168117909355805481018155600380549091019055519093507f439d282824ca5f610e95b9db1219e349714f36fb3777216c6f38341abc6c40689250a29a9950505050505050505050565b610563610778565b61056d6000610819565b565b604051806060016040528060228152602001610ca16022913981565b60006004546000141580156105a1575060045434105b156105d857604051806060016040528060228152602001610ca16022913960405162461bcd60e51b81526004016103aa9190610a8d565b60006001548585336040516020016105f39493929190610b63565b60408051601f198184030181529190528051602090910120600654909150600090610627906001600160a01b0316836107a5565b604051635f1e6f6d60e01b81529091506001600160a01b03821690635f1e6f6d9061065c9033908a908a908a90600401610c4b565b600060405180830381600087803b15801561067657600080fd5b505af115801561068a573d6000803e3d6000fd5b50503360009081526009602090815260408083208054600181810183559185528385200180546001600160a01b0389166001600160a01b0319918216811790925582548652600890945282852080549094168117909355805481018155600280549091019055519093507f439d282824ca5f610e95b9db1219e349714f36fb3777216c6f38341abc6c40689250a295945050505050565b600a60205281600052604060002081815481106102ff57600080fd5b610745610778565b6001600160a01b03811661076f57604051631e4fbdf760e01b8152600060048201526024016103aa565b6103b381610819565b6000546001600160a01b0316331461056d5760405163118cdaa760e01b81523360048201526024016103aa565b6000763d602d80600a3d3981f3363d3d373d3d3d363d730000008360601b60e81c176000526e5af43d82803e903d91602b57fd5bf38360781b1760205281603760096000f590506001600160a01b038116610813576040516330be1a3d60e21b815260040160405180910390fd5b92915050565b600080546001600160a01b038381166001600160a01b0319831681178455604051919092169283917f8be0079c531659141344cd1fd0a4f28419497f9722a3daafe3b4186f6b6457e09190a35050565b80356001600160a01b038116811461088057600080fd5b919050565b6000806040838503121561089857600080fd5b6108a183610869565b946020939093013593505050565b634e487b7160e01b600052604160045260246000fd5b600082601f8301126108d657600080fd5b813567ffffffffffffffff808211156108f1576108f16108af565b604051601f8301601f19908116603f01168101908282118183101715610919576109196108af565b8160405283815286602085880101111561093257600080fd5b836020870160208301376000602085830101528094505050505092915050565b8035801515811461088057600080fd5b600080600080600080600080610100898b03121561097f57600080fd5b883597506020890135965060408901359550606089013567ffffffffffffffff808211156109ac57600080fd5b6109b88c838d016108c5565b965060808b01359150808211156109ce57600080fd5b6109da8c838d016108c5565b955060a08b01359150808211156109f057600080fd5b6109fc8c838d016108c5565b945060c08b0135915080821115610a1257600080fd5b50610a1f8b828c016108c5565b925050610a2e60e08a01610952565b90509295985092959890939650565b60005b83811015610a58578181015183820152602001610a40565b50506000910152565b60008151808452610a79816020860160208601610a3d565b601f01601f19169290920160200192915050565b602081526000610aa06020830184610a61565b9392505050565b600080600060608486031215610abc57600080fd5b833567ffffffffffffffff80821115610ad457600080fd5b610ae0878388016108c5565b94506020860135915080821115610af657600080fd5b610b02878388016108c5565b93506040860135915080821115610b1857600080fd5b50610b25868287016108c5565b9150509250925092565b600060208284031215610b4157600080fd5b610aa082610869565b600060208284031215610b5c57600080fd5b5035919050565b84815260008451610b7b816020850160208901610a3d565b80830190508451610b93816020840160208901610a3d565b60609490941b6bffffffffffffffffffffffff19166020919094019081019390935250506034019392505050565b60006101208b83528a602084015289604084015260018060a01b0389166060840152806080840152610bf581840189610a61565b905082810360a0840152610c098188610a61565b905082810360c0840152610c1d8187610a61565b905082810360e0840152610c318186610a61565b9150508215156101008301529a9950505050505050505050565b6001600160a01b0385168152608060208201819052600090610c6f90830186610a61565b8281036040840152610c818186610a61565b90508281036060840152610c958185610a61565b97965050505050505056fe45524337323120436f6c6c656374696f6e3a204e6f7420656e6f7567682045544821a2646970667358221220991c5efa225bd0a15001a2551b4bae0b6c4d3ba24ec56452d6542b6e5d5b40dd64736f6c63430008170033",
    "linkReferences": {}
  },
  "methodIdentifiers": {
    "PAY()": "72e7ef29",
    "collectionFee()": "6ada44c7",
    "collectionImplementation()": "0f3b901f",
    "collections(uint256)": "fdbda0ec",
    "collectionsLaunched()": "2880060e",
    "createCollection(uint256,uint256,uint256,string,string,string,string,bool)": "4d6f3dee",
    "createSingleNft(string,string,string)": "863002e7",
    "owner()": "8da5cb5b",
    "renounceOwnership()": "715018a6",
    "singleNftFee()": "535f8d01",
    "singleNftImplementation()": "e2909787",
    "singleNftsLaunched()": "393bb465",
    "transferOwnership(address)": "f2fde38b",
    "userToCollection(address,uint256)": "e1995fd1",
    "userToSingleNft(address,uint256)": "26c82ebb",
    "withdrawFees()": "476343ee"
  },
  "id": 44
}