{
  "abi": [
    {
      "inputs": [],
      "stateMutability": "nonpayable",
      "type": "constructor"
    },
    {
      "inputs": [
        {
          "internalType": "address",
          "name": "target",
          "type": "address"
        }
      ],
      "name": "AddressEmptyCode",
      "type": "error"
    },
    {
      "inputs": [
        {
          "internalType": "address",
          "name": "implementation",
          "type": "address"
        }
      ],
      "name": "ERC1967InvalidImplementation",
      "type": "error"
    },
    {
      "inputs": [],
      "name": "ERC1967NonPayable",
      "type": "error"
    },
    {
      "inputs": [],
      "name": "EnforcedPause",
      "type": "error"
    },
    {
      "inputs": [],
      "name": "ExpectedPause",
      "type": "error"
    },
    {
      "inputs": [],
      "name": "FailedInnerCall",
      "type": "error"
    },
    {
      "inputs": [],
      "name": "InvalidInitialization",
      "type": "error"
    },
    {
      "inputs": [],
      "name": "NotInitializing",
      "type": "error"
    },
    {
      "inputs": [
        {
          "internalType": "address",
          "name": "owner",
          "type": "address"
        }
      ],
      "name": "OwnableInvalidOwner",
      "type": "error"
    },
    {
      "inputs": [
        {
          "internalType": "address",
          "name": "account",
          "type": "address"
        }
      ],
      "name": "OwnableUnauthorizedAccount",
      "type": "error"
    },
    {
      "inputs": [],
      "name": "UUPSUnauthorizedCallContext",
      "type": "error"
    },
    {
      "inputs": [
        {
          "internalType": "bytes32",
          "name": "slot",
          "type": "bytes32"
        }
      ],
      "name": "UUPSUnsupportedProxiableUUID",
      "type": "error"
    },
    {
      "anonymous": false,
      "inputs": [
        {
          "indexed": false,
          "internalType": "uint256",
          "name": "marketItemId",
          "type": "uint256"
        },
        {
          "indexed": true,
          "internalType": "address",
          "name": "seller",
          "type": "address"
        }
      ],
      "name": "DeleteNft",
      "type": "event"
    },
    {
      "anonymous": false,
      "inputs": [
        {
          "indexed": false,
          "internalType": "uint256",
          "name": "marketItemId",
          "type": "uint256"
        },
        {
          "indexed": false,
          "internalType": "uint256",
          "name": "bidEndDate",
          "type": "uint256"
        }
      ],
      "name": "ExtendBidTime",
      "type": "event"
    },
    {
      "anonymous": false,
      "inputs": [
        {
          "indexed": false,
          "internalType": "uint64",
          "name": "version",
          "type": "uint64"
        }
      ],
      "name": "Initialized",
      "type": "event"
    },
    {
      "anonymous": false,
      "inputs": [
        {
          "indexed": false,
          "internalType": "uint256",
          "name": "nftId",
          "type": "uint256"
        },
        {
          "indexed": false,
          "internalType": "uint256",
          "name": "price",
          "type": "uint256"
        },
        {
          "indexed": true,
          "internalType": "address",
          "name": "collection",
          "type": "address"
        },
        {
          "indexed": true,
          "internalType": "address",
          "name": "seller",
          "type": "address"
        },
        {
          "indexed": true,
          "internalType": "address",
          "name": "buyer",
          "type": "address"
        }
      ],
      "name": "MarketItemSold",
      "type": "event"
    },
    {
      "anonymous": false,
      "inputs": [
        {
          "indexed": false,
          "internalType": "uint256",
          "name": "marketItemId",
          "type": "uint256"
        },
        {
          "indexed": false,
          "internalType": "uint256",
          "name": "amount",
          "type": "uint256"
        },
        {
          "indexed": true,
          "internalType": "address",
          "name": "bidder",
          "type": "address"
        }
      ],
      "name": "NewBid",
      "type": "event"
    },
    {
      "anonymous": false,
      "inputs": [
        {
          "indexed": false,
          "internalType": "uint256",
          "name": "nftId",
          "type": "uint256"
        },
        {
          "indexed": false,
          "internalType": "uint256",
          "name": "price",
          "type": "uint256"
        },
        {
          "indexed": true,
          "internalType": "address",
          "name": "collection",
          "type": "address"
        },
        {
          "indexed": true,
          "internalType": "address",
          "name": "seller",
          "type": "address"
        }
      ],
      "name": "NewMarketItem",
      "type": "event"
    },
    {
      "anonymous": false,
      "inputs": [
        {
          "indexed": true,
          "internalType": "address",
          "name": "previousOwner",
          "type": "address"
        },
        {
          "indexed": true,
          "internalType": "address",
          "name": "newOwner",
          "type": "address"
        }
      ],
      "name": "OwnershipTransferred",
      "type": "event"
    },
    {
      "anonymous": false,
      "inputs": [
        {
          "indexed": false,
          "internalType": "address",
          "name": "account",
          "type": "address"
        }
      ],
      "name": "Paused",
      "type": "event"
    },
    {
      "anonymous": false,
      "inputs": [
        {
          "indexed": false,
          "internalType": "address",
          "name": "account",
          "type": "address"
        }
      ],
      "name": "Unpaused",
      "type": "event"
    },
    {
      "anonymous": false,
      "inputs": [
        {
          "indexed": true,
          "internalType": "address",
          "name": "implementation",
          "type": "address"
        }
      ],
      "name": "Upgraded",
      "type": "event"
    },
    {
      "anonymous": false,
      "inputs": [
        {
          "indexed": false,
          "internalType": "uint256",
          "name": "marketItemId",
          "type": "uint256"
        },
        {
          "indexed": false,
          "internalType": "uint256",
          "name": "amount",
          "type": "uint256"
        },
        {
          "indexed": true,
          "internalType": "address",
          "name": "bidder",
          "type": "address"
        }
      ],
      "name": "WithdrawBid",
      "type": "event"
    },
    {
      "inputs": [],
      "name": "UPGRADE_INTERFACE_VERSION",
      "outputs": [
        {
          "internalType": "string",
          "name": "",
          "type": "string"
        }
      ],
      "stateMutability": "view",
      "type": "function"
    },
    {
      "inputs": [
        {
          "internalType": "uint256",
          "name": "_bidId",
          "type": "uint256"
        }
      ],
      "name": "acceptBid",
      "outputs": [],
      "stateMutability": "payable",
      "type": "function"
    },
    {
      "inputs": [
        {
          "internalType": "uint256",
          "name": "_marketItemId",
          "type": "uint256"
        },
        {
          "internalType": "uint256",
          "name": "_amount",
          "type": "uint256"
        }
      ],
      "name": "bid",
      "outputs": [],
      "stateMutability": "payable",
      "type": "function"
    },
    {
      "inputs": [
        {
          "internalType": "uint256",
          "name": "",
          "type": "uint256"
        }
      ],
      "name": "bids",
      "outputs": [
        {
          "internalType": "uint256",
          "name": "marketItemId",
          "type": "uint256"
        },
        {
          "internalType": "uint256",
          "name": "amount",
          "type": "uint256"
        },
        {
          "internalType": "address",
          "name": "bidder",
          "type": "address"
        }
      ],
      "stateMutability": "view",
      "type": "function"
    },
    {
      "inputs": [
        {
          "internalType": "uint256",
          "name": "_marketItemId",
          "type": "uint256"
        },
        {
          "internalType": "address",
          "name": "_receiver",
          "type": "address"
        }
      ],
      "name": "buyMarketItem",
      "outputs": [],
      "stateMutability": "payable",
      "type": "function"
    },
    {
      "inputs": [
        {
          "internalType": "uint256",
          "name": "_marketItemId",
          "type": "uint256"
        },
        {
          "internalType": "uint256",
          "name": "_price",
          "type": "uint256"
        }
      ],
      "name": "changePrice",
      "outputs": [],
      "stateMutability": "nonpayable",
      "type": "function"
    },
    {
      "inputs": [
        {
          "internalType": "uint256",
          "name": "_marketItemId",
          "type": "uint256"
        }
      ],
      "name": "closeMarketItem",
      "outputs": [],
      "stateMutability": "nonpayable",
      "type": "function"
    },
    {
      "inputs": [
        {
          "internalType": "uint256",
          "name": "_marketItemId",
          "type": "uint256"
        },
        {
          "internalType": "uint256",
          "name": "_bidEndDate",
          "type": "uint256"
        }
      ],
      "name": "extendBidTime",
      "outputs": [],
      "stateMutability": "nonpayable",
      "type": "function"
    },
    {
      "inputs": [
        {
          "internalType": "uint256",
          "name": "_bidId",
          "type": "uint256"
        }
      ],
      "name": "getBid",
      "outputs": [
        {
          "components": [
            {
              "internalType": "uint256",
              "name": "marketItemId",
              "type": "uint256"
            },
            {
              "internalType": "uint256",
              "name": "amount",
              "type": "uint256"
            },
            {
              "internalType": "address",
              "name": "bidder",
              "type": "address"
            }
          ],
          "internalType": "struct Rev3al_Marketplace.Bid",
          "name": "",
          "type": "tuple"
        }
      ],
      "stateMutability": "view",
      "type": "function"
    },
    {
      "inputs": [],
      "name": "getBidsLength",
      "outputs": [
        {
          "internalType": "uint256",
          "name": "",
          "type": "uint256"
        }
      ],
      "stateMutability": "view",
      "type": "function"
    },
    {
      "inputs": [
        {
          "internalType": "uint256",
          "name": "_marketItemId",
          "type": "uint256"
        }
      ],
      "name": "getMarketItemDetails",
      "outputs": [
        {
          "components": [
            {
              "internalType": "uint256",
              "name": "nftId",
              "type": "uint256"
            },
            {
              "internalType": "uint256",
              "name": "price",
              "type": "uint256"
            },
            {
              "internalType": "address",
              "name": "collection",
              "type": "address"
            },
            {
              "internalType": "address",
              "name": "seller",
              "type": "address"
            }
          ],
          "internalType": "struct Rev3al_Marketplace.MarketItem",
          "name": "",
          "type": "tuple"
        },
        {
          "components": [
            {
              "internalType": "uint256",
              "name": "bidEndDate",
              "type": "uint256"
            },
            {
              "internalType": "bool",
              "name": "onSale",
              "type": "bool"
            },
            {
              "internalType": "bool",
              "name": "onAuction",
              "type": "bool"
            }
          ],
          "internalType": "struct Rev3al_Marketplace.MarketItemProps",
          "name": "",
          "type": "tuple"
        }
      ],
      "stateMutability": "view",
      "type": "function"
    },
    {
      "inputs": [
        {
          "internalType": "address",
          "name": "_admin",
          "type": "address"
        }
      ],
      "name": "initialize",
      "outputs": [],
      "stateMutability": "nonpayable",
      "type": "function"
    },
    {
      "inputs": [
        {
          "internalType": "address",
          "name": "_collection",
          "type": "address"
        },
        {
          "internalType": "uint256",
          "name": "_nftId",
          "type": "uint256"
        },
        {
          "internalType": "uint256",
          "name": "_price",
          "type": "uint256"
        },
        {
          "internalType": "uint256",
          "name": "_bidEndDate",
          "type": "uint256"
        },
        {
          "internalType": "bool",
          "name": "_onAuction",
          "type": "bool"
        }
      ],
      "name": "listNftForSale",
      "outputs": [],
      "stateMutability": "payable",
      "type": "function"
    },
    {
      "inputs": [],
      "name": "marketItemId",
      "outputs": [
        {
          "internalType": "uint256",
          "name": "",
          "type": "uint256"
        }
      ],
      "stateMutability": "view",
      "type": "function"
    },
    {
      "inputs": [
        {
          "internalType": "uint256",
          "name": "",
          "type": "uint256"
        }
      ],
      "name": "marketItemProps",
      "outputs": [
        {
          "internalType": "uint256",
          "name": "bidEndDate",
          "type": "uint256"
        },
        {
          "internalType": "bool",
          "name": "onSale",
          "type": "bool"
        },
        {
          "internalType": "bool",
          "name": "onAuction",
          "type": "bool"
        }
      ],
      "stateMutability": "view",
      "type": "function"
    },
    {
      "inputs": [
        {
          "internalType": "uint256",
          "name": "",
          "type": "uint256"
        }
      ],
      "name": "marketItems",
      "outputs": [
        {
          "internalType": "uint256",
          "name": "nftId",
          "type": "uint256"
        },
        {
          "internalType": "uint256",
          "name": "price",
          "type": "uint256"
        },
        {
          "internalType": "address",
          "name": "collection",
          "type": "address"
        },
        {
          "internalType": "address",
          "name": "seller",
          "type": "address"
        }
      ],
      "stateMutability": "view",
      "type": "function"
    },
    {
      "inputs": [],
      "name": "owner",
      "outputs": [
        {
          "internalType": "address",
          "name": "",
          "type": "address"
        }
      ],
      "stateMutability": "view",
      "type": "function"
    },
    {
      "inputs": [
        {
          "internalType": "uint256",
          "name": "_marketItemId",
          "type": "uint256"
        }
      ],
      "name": "pauseMarketItem",
      "outputs": [],
      "stateMutability": "nonpayable",
      "type": "function"
    },
    {
      "inputs": [],
      "name": "paused",
      "outputs": [
        {
          "internalType": "bool",
          "name": "",
          "type": "bool"
        }
      ],
      "stateMutability": "view",
      "type": "function"
    },
    {
      "inputs": [],
      "name": "proxiableUUID",
      "outputs": [
        {
          "internalType": "bytes32",
          "name": "",
          "type": "bytes32"
        }
      ],
      "stateMutability": "view",
      "type": "function"
    },
    {
      "inputs": [],
      "name": "renounceOwnership",
      "outputs": [],
      "stateMutability": "nonpayable",
      "type": "function"
    },
    {
      "inputs": [
        {
          "internalType": "uint256",
          "name": "_marketItemId",
          "type": "uint256"
        }
      ],
      "name": "toggleOnAuction",
      "outputs": [],
      "stateMutability": "nonpayable",
      "type": "function"
    },
    {
      "inputs": [],
      "name": "togglePause",
      "outputs": [],
      "stateMutability": "nonpayable",
      "type": "function"
    },
    {
      "inputs": [
        {
          "internalType": "address",
          "name": "newOwner",
          "type": "address"
        }
      ],
      "name": "transferOwnership",
      "outputs": [],
      "stateMutability": "nonpayable",
      "type": "function"
    },
    {
      "inputs": [
        {
          "internalType": "uint256",
          "name": "_marketItemId",
          "type": "uint256"
        }
      ],
      "name": "unpauseMarketItem",
      "outputs": [],
      "stateMutability": "nonpayable",
      "type": "function"
    },
    {
      "inputs": [
        {
          "internalType": "address",
          "name": "newImplementation",
          "type": "address"
        },
        {
          "internalType": "bytes",
          "name": "data",
          "type": "bytes"
        }
      ],
      "name": "upgradeToAndCall",
      "outputs": [],
      "stateMutability": "payable",
      "type": "function"
    },
    {
      "inputs": [
        {
          "internalType": "uint256",
          "name": "_bidId",
          "type": "uint256"
        }
      ],
      "name": "withdrawBid",
      "outputs": [],
      "stateMutability": "payable",
      "type": "function"
    }
  ],
  "bytecode": {
    "object": "0x60a0604052306080523480156200001557600080fd5b506200002062000026565b620000da565b7ff0c57e16840df040f15088dc2f81fe391c3923bec73e23a9662efc9c229c6a00805468010000000000000000900460ff1615620000775760405163f92ee8a960e01b815260040160405180910390fd5b80546001600160401b0390811614620000d75780546001600160401b0319166001600160401b0390811782556040519081527fc7f505b2f371ae2175ee4913f4499e1f2633a7b5936321eed1cdaeb6115181d29060200160405180910390a15b50565b6080516127846200010460003960008181611dc401528181611ded0152611f3301526127846000f3fe60806040526004361061019c5760003560e01c8063715018a6116100ec578063b3f2aa7a1161008a578063d879914a11610064578063d879914a1461066b578063f1d5179814610680578063f2fde38b146106a0578063fdd9ff5c146106c057600080fd5b8063b3f2aa7a14610623578063c4ae316814610636578063c4d66de81461064b57600080fd5b8063902b230d116100c6578063902b230d146105925780639b9cc9ef146105b2578063ad3cb1cc146105c5578063b3de019c1461060357600080fd5b8063715018a61461041257806388d9e84c146104275780638da5cb5b1461054b57600080fd5b80634f1ef286116101595780635651a6a2116101335780635651a6a214610352578063598647f8146103af5780635c975abb146103c25780636e812b7e146103f257600080fd5b80634f1ef2861461029d57806351f28e14146102b057806352d1902d1461032f57600080fd5b80630eaaf4c8146101a1578063208e4052146101b65780632b1fd58a146101d65780632eefc06e146101e95780633c889e6f146102095780634423c5f114610259575b600080fd5b6101b46101af36600461238b565b6106d6565b005b3480156101c257600080fd5b506101b46101d136600461238b565b610854565b6101b46101e436600461238b565b610981565b3480156101f557600080fd5b506101b46102043660046123a4565b610d61565b34801561021557600080fd5b5061022961022436600461238b565b610ea6565b604080518251815260208084015190820152918101516001600160a01b0316908201526060015b60405180910390f35b34801561026557600080fd5b5061027961027436600461238b565b610f2f565b6040805193845260208401929092526001600160a01b031690820152606001610250565b6101b46102ab3660046123f1565b610f6b565b3480156102bc57600080fd5b506103006102cb36600461238b565b600260208190526000918252604090912080546001820154928201546003909201549092916001600160a01b03908116911684565b6040805194855260208501939093526001600160a01b0391821692840192909252166060820152608001610250565b34801561033b57600080fd5b50610344610f8a565b604051908152602001610250565b34801561035e57600080fd5b5061039261036d36600461238b565b6003602052600090815260409020805460019091015460ff8082169161010090041683565b604080519384529115156020840152151590820152606001610250565b6101b46103bd3660046123a4565b610fa7565b3480156103ce57600080fd5b5060008051602061272f8339815191525460ff166040519015158152602001610250565b3480156103fe57600080fd5b506101b461040d36600461238b565b6111a0565b34801561041e57600080fd5b506101b4611275565b34801561043357600080fd5b506104f561044236600461238b565b604080516080808201835260008083526020808401829052838501829052606093840182905284518085018652828152808201839052850182905294815260028086528482206003808852928690208651948501875281548552600180830154868a0152928201546001600160a01b03908116868901529390910154909216838501528451938401855281548452015460ff80821615159584019590955261010090049093161515918101919091529091565b604080518351815260208085015181830152848301516001600160a01b039081168385015260609586015116948201949094528251608082015292820151151560a08401520151151560c082015260e001610250565b34801561055757600080fd5b507f9016d09d72d40fdae2fd8ceac6b6234c7706214fd39c1cd1e609a0528c199300546040516001600160a01b039091168152602001610250565b34801561059e57600080fd5b506101b46105ad36600461238b565b611289565b6101b46105c03660046124c3565b61136c565b3480156105d157600080fd5b506105f6604051806040016040528060058152602001640352e302e360dc1b81525081565b604051610250919061253d565b34801561060f57600080fd5b506101b461061e3660046123a4565b6115bc565b6101b4610631366004612570565b611626565b34801561064257600080fd5b506101b46119cb565b34801561065757600080fd5b506101b46106663660046125a0565b6119fb565b34801561067757600080fd5b50600154610344565b34801561068c57600080fd5b506101b461069b36600461238b565b611b1b565b3480156106ac57600080fd5b506101b46106bb3660046125a0565b611bd8565b3480156106cc57600080fd5b5061034460005481565b6106de611c16565b6000600182815481106106f3576106f36125bd565b600091825260209091206002600390920201908101549091506001600160a01b0316331461073c5760405162461bcd60e51b8152600401610733906125d3565b60405180910390fd5b600181015460405160009133918381818185875af1925050503d8060008114610781576040519150601f19603f3d011682016040523d82523d6000602084013e610786565b606091505b50509050806107c95760405162461bcd60e51b815260206004820152600f60248201526e15da5d1a191c985dc811985a5b1959608a1b6044820152606401610733565b600183815481106107dc576107dc6125bd565b60009182526020822060039091020181815560018082019290925560020180546001600160a01b031916905582549083015460405133927f9fa51e6fcc1ea495b771509dde92669732f871ec2e79b405f33d17d7ead38f669261084792918252602082015260400190565b60405180910390a2505050565b61085c611c16565b600054811061087d5760405162461bcd60e51b8152600401610733906125f9565b60008181526002602090815260408083206003928390529220908201546001600160a01b031633146108c15760405162461bcd60e51b8152600401610733906125d3565b600181015460ff161561090d5760405162461bcd60e51b81526020600482015260146024820152734974656d20416c7265616479204f6e2053616c6560601b6044820152606401610733565b6001818101805460ff191682179055600383015460028401548454928501546040516001600160a01b039384169492909316927f097ef2fb105e6c4e81d8dba475e80a0ddcc845c693e908518e2ac620eb848e2e9261097492908252602082015260400190565b60405180910390a3505050565b610989611c16565b60006001828154811061099e5761099e6125bd565b60009182526020808320600392830201805480855260028352604080862093859052909420928201549094509091906001600160a01b031633146109f45760405162461bcd60e51b8152600401610733906125d3565b6001810154610100900460ff16610a5d5760405162461bcd60e51b815260206004820152602760248201527f43616e2774206163636570742062696473206f6e206e6f6e2d61756374696f6e604482015266206974656d732160c81b6064820152608401610733565b600282015482546000918291610a7c916001600160a01b031690611c47565b6002868101546003880154918a015488546040516323b872dd60e01b81526001600160a01b0394851660048201529184166024830152604482015293955091935016906323b872dd90606401600060405180830381600087803b158015610ae257600080fd5b505af1158015610af6573d6000803e3d6000fd5b50505050600384015460018701546000916001600160a01b031690610b1c908590612626565b604051600081818185875af1925050503d8060008114610b58576040519150601f19603f3d011682016040523d82523d6000602084013e610b5d565b606091505b5050905080610ba05760405162461bcd60e51b815260206004820152600f60248201526e151c985b9cd9995c8811985a5b1959608a1b6044820152606401610733565b600083118015610bb45750610bb482611d50565b15610c5a576000826001600160a01b03168460405160006040518083038185875af1925050503d8060008114610c06576040519150601f19603f3d011682016040523d82523d6000602084013e610c0b565b606091505b5050905080610c585760405162461bcd60e51b8152602060048201526019602482015278149bde585b1d1a595cc8151c985b9cd9995c8811985a5b1959603a1b6044820152606401610733565b505b6000868152600260208181526040808420848155600180820186905581850180546001600160a01b0319908116909155600392830180549091169055818452828620958655948501805461ffff191690558b840154908a0154938a01548a54958d01548351968752938601939093526001600160a01b0390811694938116939216917f86287a51d22f6a7fd7902a402f3a41d9d5981c420caefa906b458a864d32c746910160405180910390a4600287015460018801546040805189815260208101929092526001600160a01b03909216917f9fa51e6fcc1ea495b771509dde92669732f871ec2e79b405f33d17d7ead38f66910160405180910390a25050505050505050565b610d69611c16565b6000548210610d8a5760405162461bcd60e51b8152600401610733906125f9565b60008281526002602090815260408083206003928390529220908201546001600160a01b03163314610dce5760405162461bcd60e51b8152600401610733906125d3565b6001810154610100900460ff16610e1d5760405162461bcd60e51b815260206004820152601360248201527224ba32b6902737ba1027b71020bab1ba34b7b760691b6044820152606401610733565b42831015610e645760405162461bcd60e51b8152602060048201526014602482015273496e76616c69642042696420456e64204461746560601b6044820152606401610733565b82815560408051858152602081018590527fe7ebe60f038904d4678b25801695f17f97e6f4c83aaf6a53f69df36c335cba8a910160405180910390a150505050565b610ed36040518060600160405280600081526020016000815260200160006001600160a01b031681525090565b60018281548110610ee657610ee66125bd565b6000918252602091829020604080516060810182526003909302909101805483526001810154938301939093526002909201546001600160a01b03169181019190915292915050565b60018181548110610f3f57600080fd5b60009182526020909120600390910201805460018201546002909201549092506001600160a01b031683565b610f73611db9565b610f7c82611e5e565b610f868282611e66565b5050565b6000610f94611f28565b5060008051602061270f83398151915290565b610faf611c16565b6000548210610fd05760405162461bcd60e51b8152600401610733906125f9565b60008281526003602052604090206001810154610100900460ff1661102d5760405162461bcd60e51b815260206004820152601360248201527224ba32b6902737ba1027b71020bab1ba34b7b760691b6044820152606401610733565b805442111561106a5760405162461bcd60e51b8152602060048201526009602482015268109a5908115b99195960ba1b6044820152606401610733565b8134146110aa5760405162461bcd60e51b815260206004820152600e60248201526d125b9d985b1a5908105b5bdd5b9d60921b6044820152606401610733565b6040805160608101825284815260208082018581523383850181815260018054808201825560009190915294517fb10e2d527612073b26eecdfd717e6a320cf44b4afac2b0732d9fcbe2b7fa0cf660039096029586015591517fb10e2d527612073b26eecdfd717e6a320cf44b4afac2b0732d9fcbe2b7fa0cf785015590517fb10e2d527612073b26eecdfd717e6a320cf44b4afac2b0732d9fcbe2b7fa0cf890930180546001600160a01b0319166001600160a01b0390941693909317909255825186815290810185905290917f0b946a7d9cbd47da0dd592970ef1259349c40f44b231f11da4babeb56c07dd2d9101610847565b6111a8611c16565b60005481106111c95760405162461bcd60e51b8152600401610733906125f9565b6000818152600360208181526040808420600290925290922001546001600160a01b0316331461120b5760405162461bcd60e51b8152600401610733906125d3565b600181015460ff1661122f5760405162461bcd60e51b815260040161073390612647565b60018101805460ff1916905560405182815233907f3382c654708aeb37a51bc6521e63f001ec8e3958d2523daa804caa1778195b63906020015b60405180910390a25050565b61127d611f71565b6112876000611fcc565b565b611291611c16565b60005481106112b25760405162461bcd60e51b8152600401610733906125f9565b600081815260026020526040902060038101546001600160a01b031633146112ec5760405162461bcd60e51b8152600401610733906125d3565b6000828152600260208181526040808420848155600180820186905593810180546001600160a01b0319908116909155600391820180549091169055825280842093845592909101805461ffff19169055905183815233917f3382c654708aeb37a51bc6521e63f001ec8e3958d2523daa804caa1778195b639101611269565b611374611c16565b61137d85611d50565b5060405163020604bf60e21b81526004810185905230906001600160a01b0387169063081812fc90602401602060405180830381865afa1580156113c5573d6000803e3d6000fd5b505050506040513d601f19601f820116820180604052508101906113e99190612671565b6001600160a01b03161461143f5760405162461bcd60e51b815260206004820152601860248201527f4d61726b6574706c616365204e6f7420417070726f76656400000000000000006044820152606401610733565b80156114955781158061145157504282105b156114955760405162461bcd60e51b8152602060048201526014602482015273496e76616c69642042696420456e64204461746560601b6044820152606401610733565b6040518060600160405280838152602001826114b25760016114b5565b60005b15158152821515602091820152600080548152600380835260408083208551815585850151600191820180549784015115156101000261ff00199215159290921661ffff19909816979097171790955580516080810182528981528085018981526001600160a01b038c8116838501818152336060860181815289548a526002808c52888b20975188559551878d0155915194860180549585166001600160a01b031996871617905590519490960180549490921693909216929092179091558354909501909255815188815292830187905292917f097ef2fb105e6c4e81d8dba475e80a0ddcc845c693e908518e2ac620eb848e2e910160405180910390a35050505050565b6115c4611c16565b60005482106115e55760405162461bcd60e51b8152600401610733906125f9565b600082815260026020526040902060038101546001600160a01b0316331461161f5760405162461bcd60e51b8152600401610733906125d3565b6001015550565b61162e611c16565b61163781611d50565b5060005482106116595760405162461bcd60e51b8152600401610733906125f9565b600082815260026020908152604080832060039092529091206001015460ff166116955760405162461bcd60e51b815260040161073390612647565b600083815260036020526040902060010154610100900460ff16156116f55760405162461bcd60e51b8152602060048201526016602482015275111a5c9958dd08109d5e48139bdd08105b1b1bddd95960521b6044820152606401610733565b806001015434146117385760405162461bcd60e51b815260206004820152600d60248201526c496e76616c696420507269636560981b6044820152606401610733565b600281015481546000918291611757916001600160a01b031690611c47565b6002850154600386015486546040516323b872dd60e01b81526001600160a01b0392831660048201528983166024820152604481019190915293955091935016906323b872dd90606401600060405180830381600087803b1580156117bb57600080fd5b505af11580156117cf573d6000803e3d6000fd5b50505050600082111561187d576000816001600160a01b03168360405160006040518083038185875af1925050503d8060008114611829576040519150601f19603f3d011682016040523d82523d6000602084013e61182e565b606091505b505090508061187b5760405162461bcd60e51b8152602060048201526019602482015278149bde585b1d1a595cc8151c985b9cd9995c8811985a5b1959603a1b6044820152606401610733565b505b60038301546000906001600160a01b03166118988434612626565b604051600081818185875af1925050503d80600081146118d4576040519150601f19603f3d011682016040523d82523d6000602084013e6118d9565b606091505b505090508061191c5760405162461bcd60e51b815260206004820152600f60248201526e151c985b9cd9995c8811985a5b1959608a1b6044820152606401610733565b6000868152600260208181526040808420848155600180820186905581850180546001600160a01b0319908116909155600392830180549091169055818452828620958655948501805461ffff191690558801549288015488549489015482519586529285019290925233936001600160a01b0393841693909216917f86287a51d22f6a7fd7902a402f3a41d9d5981c420caefa906b458a864d32c746910160405180910390a4505050505050565b6119d3611f71565b60008051602061272f8339815191525460ff16156119f35761128761203d565b61128761209d565b7ff0c57e16840df040f15088dc2f81fe391c3923bec73e23a9662efc9c229c6a008054600160401b810460ff16159067ffffffffffffffff16600081158015611a415750825b905060008267ffffffffffffffff166001148015611a5e5750303b155b905081158015611a6c575080155b15611a8a5760405163f92ee8a960e01b815260040160405180910390fd5b845467ffffffffffffffff191660011785558315611ab457845460ff60401b1916600160401b1785555b611abd866120e6565b611ac56120f7565b611acd6120ff565b8315611b1357845460ff60401b19168555604051600181527fc7f505b2f371ae2175ee4913f4499e1f2633a7b5936321eed1cdaeb6115181d29060200160405180910390a15b505050505050565b611b23611c16565b6000548110611b445760405162461bcd60e51b8152600401610733906125f9565b6000818152600360208181526040808420600290925290922001546001600160a01b03163314611b865760405162461bcd60e51b8152600401610733906125d3565b600181015460ff16611baa5760405162461bcd60e51b815260040161073390612647565b600101805460ff1960ff6101008084048216150291821661ffff198416179181169216919091171517905550565b611be0611f71565b6001600160a01b038116611c0a57604051631e4fbdf760e01b815260006004820152602401610733565b611c1381611fcc565b50565b60008051602061272f8339815191525460ff16156112875760405163d93c066560e01b815260040160405180910390fd5b6040516301ffc9a760e01b815263152a902d60e11b600482015260009081906001600160a01b038516906301ffc9a790602401602060405180830381865afa158015611c97573d6000803e3d6000fd5b505050506040513d601f19601f82011682018060405250810190611cbb919061268e565b15611d405760405163152a902d60e11b8152600481018490526000602482018190529081906001600160a01b03871690632a55205a906044016040805180830381865afa158015611d10573d6000803e3d6000fd5b505050506040513d601f19601f82011682018060405250810190611d3491906126ab565b94509250611d49915050565b506000905061dead5b9250929050565b60006001600160a01b0382161580611d7257506001600160a01b03821661dead145b15611db15760405162461bcd60e51b815260206004820152600f60248201526e496e76616c6964204164647265737360881b6044820152606401610733565b506001919050565b306001600160a01b037f0000000000000000000000000000000000000000000000000000000000000000161480611e4057507f00000000000000000000000000000000000000000000000000000000000000006001600160a01b0316611e3460008051602061270f833981519152546001600160a01b031690565b6001600160a01b031614155b156112875760405163703e46dd60e11b815260040160405180910390fd5b611c13611f71565b816001600160a01b03166352d1902d6040518163ffffffff1660e01b8152600401602060405180830381865afa925050508015611ec0575060408051601f3d908101601f19168201909252611ebd918101906126d9565b60015b611ee857604051634c9c8ce360e01b81526001600160a01b0383166004820152602401610733565b60008051602061270f8339815191528114611f1957604051632a87526960e21b815260048101829052602401610733565b611f23838361210f565b505050565b306001600160a01b037f000000000000000000000000000000000000000000000000000000000000000016146112875760405163703e46dd60e11b815260040160405180910390fd5b33611fa37f9016d09d72d40fdae2fd8ceac6b6234c7706214fd39c1cd1e609a0528c199300546001600160a01b031690565b6001600160a01b0316146112875760405163118cdaa760e01b8152336004820152602401610733565b7f9016d09d72d40fdae2fd8ceac6b6234c7706214fd39c1cd1e609a0528c19930080546001600160a01b031981166001600160a01b03848116918217845560405192169182907f8be0079c531659141344cd1fd0a4f28419497f9722a3daafe3b4186f6b6457e090600090a3505050565b612045612165565b60008051602061272f833981519152805460ff191681557f5db9ee0a495bf2e6ff9c91a7834c1ba4fdd244a5e8aa4e537bd38aeae4b073aa335b6040516001600160a01b03909116815260200160405180910390a150565b6120a5611c16565b60008051602061272f833981519152805460ff191660011781557f62e78cea01bee320cd4e420270b5ea74000d11b0c9f74754ebdbfc544b05a2583361207f565b6120ee612195565b611c13816121de565b611287612195565b612107612195565b6112876121e6565b61211882612207565b6040516001600160a01b038316907fbc7cd75a20ee27fd9adebab32041f755214dbc6bffa90cc0225b39da2e5c2d3b90600090a280511561215d57611f23828261226c565b610f866122e4565b60008051602061272f8339815191525460ff1661128757604051638dfc202b60e01b815260040160405180910390fd5b7ff0c57e16840df040f15088dc2f81fe391c3923bec73e23a9662efc9c229c6a0054600160401b900460ff1661128757604051631afcd79f60e31b815260040160405180910390fd5b611be0612195565b6121ee612195565b60008051602061272f833981519152805460ff19169055565b806001600160a01b03163b60000361223d57604051634c9c8ce360e01b81526001600160a01b0382166004820152602401610733565b60008051602061270f83398151915280546001600160a01b0319166001600160a01b0392909216919091179055565b6060600080846001600160a01b03168460405161228991906126f2565b600060405180830381855af49150503d80600081146122c4576040519150601f19603f3d011682016040523d82523d6000602084013e6122c9565b606091505b50915091506122d9858383612303565b925050505b92915050565b34156112875760405163b398979f60e01b815260040160405180910390fd5b6060826123185761231382612362565b61235b565b815115801561232f57506001600160a01b0384163b155b1561235857604051639996b31560e01b81526001600160a01b0385166004820152602401610733565b50805b9392505050565b8051156123725780518082602001fd5b604051630a12f52160e11b815260040160405180910390fd5b60006020828403121561239d57600080fd5b5035919050565b600080604083850312156123b757600080fd5b50508035926020909101359150565b6001600160a01b0381168114611c1357600080fd5b634e487b7160e01b600052604160045260246000fd5b6000806040838503121561240457600080fd5b823561240f816123c6565b9150602083013567ffffffffffffffff8082111561242c57600080fd5b818501915085601f83011261244057600080fd5b813581811115612452576124526123db565b604051601f8201601f19908116603f0116810190838211818310171561247a5761247a6123db565b8160405282815288602084870101111561249357600080fd5b8260208601602083013760006020848301015280955050505050509250929050565b8015158114611c1357600080fd5b600080600080600060a086880312156124db57600080fd5b85356124e6816123c6565b9450602086013593506040860135925060608601359150608086013561250b816124b5565b809150509295509295909350565b60005b8381101561253457818101518382015260200161251c565b50506000910152565b602081526000825180602084015261255c816040850160208701612519565b601f01601f19169190910160400192915050565b6000806040838503121561258357600080fd5b823591506020830135612595816123c6565b809150509250929050565b6000602082840312156125b257600080fd5b813561235b816123c6565b634e487b7160e01b600052603260045260246000fd5b6020808252600c908201526b155b985d5d1a1bdc9a5e995960a21b604082015260600190565b602080825260139082015272496e76616c6964204d61726b6574204974656d60681b604082015260600190565b818103818111156122de57634e487b7160e01b600052601160045260246000fd5b60208082526010908201526f4974656d204e6f74204f6e2053616c6560801b604082015260600190565b60006020828403121561268357600080fd5b815161235b816123c6565b6000602082840312156126a057600080fd5b815161235b816124b5565b600080604083850312156126be57600080fd5b82516126c9816123c6565b6020939093015192949293505050565b6000602082840312156126eb57600080fd5b5051919050565b60008251612704818460208701612519565b919091019291505056fe360894a13ba1a3210667c828492db98dca3e2076cc3735a920a3ca505d382bbccd5ed15c6e187e77e9aee88184c21f4f2182ab5827cb3b7e07fbedcd63f03300a26469706673582212201f95cf79361134877fe86894b8f0bc7a337d372d67dd3f9d3f52c2b4f7a7949f64736f6c63430008170033",
    "linkReferences": {}
  },
  "methodIdentifiers": {
    "UPGRADE_INTERFACE_VERSION()": "ad3cb1cc",
    "acceptBid(uint256)": "2b1fd58a",
    "bid(uint256,uint256)": "598647f8",
    "bids(uint256)": "4423c5f1",
    "buyMarketItem(uint256,address)": "b3f2aa7a",
    "changePrice(uint256,uint256)": "b3de019c",
    "closeMarketItem(uint256)": "902b230d",
    "extendBidTime(uint256,uint256)": "2eefc06e",
    "getBid(uint256)": "3c889e6f",
    "getBidsLength()": "d879914a",
    "getMarketItemDetails(uint256)": "88d9e84c",
    "initialize(address)": "c4d66de8",
    "listNftForSale(address,uint256,uint256,uint256,bool)": "9b9cc9ef",
    "marketItemId()": "fdd9ff5c",
    "marketItemProps(uint256)": "5651a6a2",
    "marketItems(uint256)": "51f28e14",
    "owner()": "8da5cb5b",
    "pauseMarketItem(uint256)": "6e812b7e",
    "paused()": "5c975abb",
    "proxiableUUID()": "52d1902d",
    "renounceOwnership()": "715018a6",
    "toggleOnAuction(uint256)": "f1d51798",
    "togglePause()": "c4ae3168",
    "transferOwnership(address)": "f2fde38b",
    "unpauseMarketItem(uint256)": "208e4052",
    "upgradeToAndCall(address,bytes)": "4f1ef286",
    "withdrawBid(uint256)": "0eaaf4c8"
  },
  "id": 42
}