{
  "abi": [
    {
      "inputs": [],
      "stateMutability": "nonpayable",
      "type": "constructor"
    },
    {
      "inputs": [
        {
          "internalType": "address",
          "name": "sender",
          "type": "address"
        },
        {
          "internalType": "uint256",
          "name": "tokenId",
          "type": "uint256"
        },
        {
          "internalType": "address",
          "name": "owner",
          "type": "address"
        }
      ],
      "name": "ERC721IncorrectOwner",
      "type": "error"
    },
    {
      "inputs": [
        {
          "internalType": "address",
          "name": "operator",
          "type": "address"
        },
        {
          "internalType": "uint256",
          "name": "tokenId",
          "type": "uint256"
        }
      ],
      "name": "ERC721InsufficientApproval",
      "type": "error"
    },
    {
      "inputs": [
        {
          "internalType": "address",
          "name": "approver",
          "type": "address"
        }
      ],
      "name": "ERC721InvalidApprover",
      "type": "error"
    },
    {
      "inputs": [
        {
          "internalType": "address",
          "name": "operator",
          "type": "address"
        }
      ],
      "name": "ERC721InvalidOperator",
      "type": "error"
    },
    {
      "inputs": [
        {
          "internalType": "address",
          "name": "owner",
          "type": "address"
        }
      ],
      "name": "ERC721InvalidOwner",
      "type": "error"
    },
    {
      "inputs": [
        {
          "internalType": "address",
          "name": "receiver",
          "type": "address"
        }
      ],
      "name": "ERC721InvalidReceiver",
      "type": "error"
    },
    {
      "inputs": [
        {
          "internalType": "address",
          "name": "sender",
          "type": "address"
        }
      ],
      "name": "ERC721InvalidSender",
      "type": "error"
    },
    {
      "inputs": [
        {
          "internalType": "uint256",
          "name": "tokenId",
          "type": "uint256"
        }
      ],
      "name": "ERC721NonexistentToken",
      "type": "error"
    },
    {
      "inputs": [],
      "name": "InvalidInitialization",
      "type": "error"
    },
    {
      "inputs": [],
      "name": "NotInitializing",
      "type": "error"
    },
    {
      "inputs": [
        {
          "internalType": "address",
          "name": "owner",
          "type": "address"
        }
      ],
      "name": "OwnableInvalidOwner",
      "type": "error"
    },
    {
      "inputs": [
        {
          "internalType": "address",
          "name": "account",
          "type": "address"
        }
      ],
      "name": "OwnableUnauthorizedAccount",
      "type": "error"
    },
    {
      "anonymous": false,
      "inputs": [
        {
          "indexed": true,
          "internalType": "address",
          "name": "owner",
          "type": "address"
        },
        {
          "indexed": true,
          "internalType": "address",
          "name": "approved",
          "type": "address"
        },
        {
          "indexed": true,
          "internalType": "uint256",
          "name": "tokenId",
          "type": "uint256"
        }
      ],
      "name": "Approval",
      "type": "event"
    },
    {
      "anonymous": false,
      "inputs": [
        {
          "indexed": true,
          "internalType": "address",
          "name": "owner",
          "type": "address"
        },
        {
          "indexed": true,
          "internalType": "address",
          "name": "operator",
          "type": "address"
        },
        {
          "indexed": false,
          "internalType": "bool",
          "name": "approved",
          "type": "bool"
        }
      ],
      "name": "ApprovalForAll",
      "type": "event"
    },
    {
      "anonymous": false,
      "inputs": [
        {
          "indexed": false,
          "internalType": "uint256",
          "name": "_fromTokenId",
          "type": "uint256"
        },
        {
          "indexed": false,
          "internalType": "uint256",
          "name": "_toTokenId",
          "type": "uint256"
        }
      ],
      "name": "BatchMetadataUpdate",
      "type": "event"
    },
    {
      "anonymous": false,
      "inputs": [
        {
          "indexed": false,
          "internalType": "uint64",
          "name": "version",
          "type": "uint64"
        }
      ],
      "name": "Initialized",
      "type": "event"
    },
    {
      "anonymous": false,
      "inputs": [
        {
          "indexed": false,
          "internalType": "uint256",
          "name": "_tokenId",
          "type": "uint256"
        }
      ],
      "name": "MetadataUpdate",
      "type": "event"
    },
    {
      "anonymous": false,
      "inputs": [
        {
          "indexed": true,
          "internalType": "address",
          "name": "previousOwner",
          "type": "address"
        },
        {
          "indexed": true,
          "internalType": "address",
          "name": "newOwner",
          "type": "address"
        }
      ],
      "name": "OwnershipTransferred",
      "type": "event"
    },
    {
      "anonymous": false,
      "inputs": [
        {
          "indexed": true,
          "internalType": "address",
          "name": "from",
          "type": "address"
        },
        {
          "indexed": true,
          "internalType": "address",
          "name": "to",
          "type": "address"
        },
        {
          "indexed": true,
          "internalType": "uint256",
          "name": "tokenId",
          "type": "uint256"
        }
      ],
      "name": "Transfer",
      "type": "event"
    },
    {
      "inputs": [],
      "name": "URI",
      "outputs": [
        {
          "internalType": "string",
          "name": "",
          "type": "string"
        }
      ],
      "stateMutability": "view",
      "type": "function"
    },
    {
      "inputs": [
        {
          "internalType": "address",
          "name": "to",
          "type": "address"
        },
        {
          "internalType": "uint256",
          "name": "tokenId",
          "type": "uint256"
        }
      ],
      "name": "approve",
      "outputs": [],
      "stateMutability": "nonpayable",
      "type": "function"
    },
    {
      "inputs": [
        {
          "internalType": "address",
          "name": "owner",
          "type": "address"
        }
      ],
      "name": "balanceOf",
      "outputs": [
        {
          "internalType": "uint256",
          "name": "",
          "type": "uint256"
        }
      ],
      "stateMutability": "view",
      "type": "function"
    },
    {
      "inputs": [
        {
          "internalType": "uint256",
          "name": "tokenId",
          "type": "uint256"
        }
      ],
      "name": "getApproved",
      "outputs": [
        {
          "internalType": "address",
          "name": "",
          "type": "address"
        }
      ],
      "stateMutability": "view",
      "type": "function"
    },
    {
      "inputs": [
        {
          "internalType": "address",
          "name": "initialOwner",
          "type": "address"
        },
        {
          "internalType": "string",
          "name": "_name",
          "type": "string"
        },
        {
          "internalType": "string",
          "name": "_symbol",
          "type": "string"
        },
        {
          "internalType": "string",
          "name": "uri",
          "type": "string"
        }
      ],
      "name": "initialize",
      "outputs": [],
      "stateMutability": "nonpayable",
      "type": "function"
    },
    {
      "inputs": [
        {
          "internalType": "address",
          "name": "owner",
          "type": "address"
        },
        {
          "internalType": "address",
          "name": "operator",
          "type": "address"
        }
      ],
      "name": "isApprovedForAll",
      "outputs": [
        {
          "internalType": "bool",
          "name": "",
          "type": "bool"
        }
      ],
      "stateMutability": "view",
      "type": "function"
    },
    {
      "inputs": [],
      "name": "name",
      "outputs": [
        {
          "internalType": "string",
          "name": "",
          "type": "string"
        }
      ],
      "stateMutability": "view",
      "type": "function"
    },
    {
      "inputs": [],
      "name": "owner",
      "outputs": [
        {
          "internalType": "address",
          "name": "",
          "type": "address"
        }
      ],
      "stateMutability": "view",
      "type": "function"
    },
    {
      "inputs": [
        {
          "internalType": "uint256",
          "name": "tokenId",
          "type": "uint256"
        }
      ],
      "name": "ownerOf",
      "outputs": [
        {
          "internalType": "address",
          "name": "",
          "type": "address"
        }
      ],
      "stateMutability": "view",
      "type": "function"
    },
    {
      "inputs": [],
      "name": "renounceOwnership",
      "outputs": [],
      "stateMutability": "nonpayable",
      "type": "function"
    },
    {
      "inputs": [
        {
          "internalType": "address",
          "name": "from",
          "type": "address"
        },
        {
          "internalType": "address",
          "name": "to",
          "type": "address"
        },
        {
          "internalType": "uint256",
          "name": "tokenId",
          "type": "uint256"
        }
      ],
      "name": "safeTransferFrom",
      "outputs": [],
      "stateMutability": "nonpayable",
      "type": "function"
    },
    {
      "inputs": [
        {
          "internalType": "address",
          "name": "from",
          "type": "address"
        },
        {
          "internalType": "address",
          "name": "to",
          "type": "address"
        },
        {
          "internalType": "uint256",
          "name": "tokenId",
          "type": "uint256"
        },
        {
          "internalType": "bytes",
          "name": "data",
          "type": "bytes"
        }
      ],
      "name": "safeTransferFrom",
      "outputs": [],
      "stateMutability": "nonpayable",
      "type": "function"
    },
    {
      "inputs": [
        {
          "internalType": "address",
          "name": "operator",
          "type": "address"
        },
        {
          "internalType": "bool",
          "name": "approved",
          "type": "bool"
        }
      ],
      "name": "setApprovalForAll",
      "outputs": [],
      "stateMutability": "nonpayable",
      "type": "function"
    },
    {
      "inputs": [
        {
          "internalType": "bytes4",
          "name": "interfaceId",
          "type": "bytes4"
        }
      ],
      "name": "supportsInterface",
      "outputs": [
        {
          "internalType": "bool",
          "name": "",
          "type": "bool"
        }
      ],
      "stateMutability": "view",
      "type": "function"
    },
    {
      "inputs": [],
      "name": "symbol",
      "outputs": [
        {
          "internalType": "string",
          "name": "",
          "type": "string"
        }
      ],
      "stateMutability": "view",
      "type": "function"
    },
    {
      "inputs": [
        {
          "internalType": "uint256",
          "name": "tokenId",
          "type": "uint256"
        }
      ],
      "name": "tokenURI",
      "outputs": [
        {
          "internalType": "string",
          "name": "",
          "type": "string"
        }
      ],
      "stateMutability": "view",
      "type": "function"
    },
    {
      "inputs": [],
      "name": "totalSupply",
      "outputs": [
        {
          "internalType": "uint256",
          "name": "",
          "type": "uint256"
        }
      ],
      "stateMutability": "view",
      "type": "function"
    },
    {
      "inputs": [
        {
          "internalType": "address",
          "name": "from",
          "type": "address"
        },
        {
          "internalType": "address",
          "name": "to",
          "type": "address"
        },
        {
          "internalType": "uint256",
          "name": "tokenId",
          "type": "uint256"
        }
      ],
      "name": "transferFrom",
      "outputs": [],
      "stateMutability": "nonpayable",
      "type": "function"
    },
    {
      "inputs": [
        {
          "internalType": "address",
          "name": "newOwner",
          "type": "address"
        }
      ],
      "name": "transferOwnership",
      "outputs": [],
      "stateMutability": "nonpayable",
      "type": "function"
    }
  ],
  "bytecode": {
    "object": "0x608060405234801561001057600080fd5b5061001961001e565b6100d0565b7ff0c57e16840df040f15088dc2f81fe391c3923bec73e23a9662efc9c229c6a00805468010000000000000000900460ff161561006e5760405163f92ee8a960e01b815260040160405180910390fd5b80546001600160401b03908116146100cd5780546001600160401b0319166001600160401b0390811782556040519081527fc7f505b2f371ae2175ee4913f4499e1f2633a7b5936321eed1cdaeb6115181d29060200160405180910390a15b50565b6115df806100df6000396000f3fe608060405234801561001057600080fd5b50600436106101215760003560e01c80636352211e116100ad578063a22cb46511610071578063a22cb4651461025c578063b88d4fde1461026f578063c87b56dd14610282578063e985e9c514610295578063f2fde38b146102a857600080fd5b80636352211e146101f657806370a0823114610209578063715018a61461021c5780638da5cb5b1461022457806395d89b411461025457600080fd5b80631141d7de116100f45780631141d7de146101a357806318160ddd146101ab57806323b872dd146101bd57806342842e0e146101d05780635f1e6f6d146101e357600080fd5b806301ffc9a71461012657806306fdde031461014e578063081812fc14610163578063095ea7b31461018e575b600080fd5b610139610134366004611067565b6102bb565b60405190151581526020015b60405180910390f35b6101566102cc565b60405161014591906110d1565b6101766101713660046110e4565b610370565b6040516001600160a01b039091168152602001610145565b6101a161019c366004611119565b610385565b005b610156610394565b6000545b604051908152602001610145565b6101a16101cb366004611143565b610422565b6101a16101de366004611143565b6104b2565b6101a16101f136600461122b565b6104d2565b6101766102043660046110e4565b61060d565b6101af6102173660046112c4565b610618565b6101a1610674565b7f9016d09d72d40fdae2fd8ceac6b6234c7706214fd39c1cd1e609a0528c199300546001600160a01b0316610176565b610156610688565b6101a161026a3660046112df565b6106c7565b6101a161027d36600461131b565b6106d2565b6101566102903660046110e4565b6106e9565b6101396102a336600461138b565b610787565b6101a16102b63660046112c4565b6107d4565b60006102c682610812565b92915050565b60008051602061158a83398151915280546060919081906102ec906113be565b80601f0160208091040260200160405190810160405280929190818152602001828054610318906113be565b80156103655780601f1061033a57610100808354040283529160200191610365565b820191906000526020600020905b81548152906001019060200180831161034857829003601f168201915b505050505091505090565b600061037b82610837565b506102c68261086f565b6103908282336108a9565b5050565b600180546103a1906113be565b80601f01602080910402602001604051908101604052809291908181526020018280546103cd906113be565b801561041a5780601f106103ef5761010080835404028352916020019161041a565b820191906000526020600020905b8154815290600101906020018083116103fd57829003601f168201915b505050505081565b6001600160a01b03821661045157604051633250574960e11b8152600060048201526024015b60405180910390fd5b600061045e8383336108b6565b9050836001600160a01b0316816001600160a01b0316146104ac576040516364283d7b60e01b81526001600160a01b0380861660048301526024820184905282166044820152606401610448565b50505050565b6104cd838383604051806020016040528060008152506106d2565b505050565b7ff0c57e16840df040f15088dc2f81fe391c3923bec73e23a9662efc9c229c6a008054600160401b810460ff16159067ffffffffffffffff166000811580156105185750825b905060008267ffffffffffffffff1660011480156105355750303b155b905081158015610543575080155b156105615760405163f92ee8a960e01b815260040160405180910390fd5b845467ffffffffffffffff19166001178555831561058b57845460ff60401b1916600160401b1785555b61059588886109c0565b61059d6109d2565b6105a6896109da565b60016105b28782611448565b506105bc896109eb565b831561060257845460ff60401b19168555604051600181527fc7f505b2f371ae2175ee4913f4499e1f2633a7b5936321eed1cdaeb6115181d29060200160405180910390a15b505050505050505050565b60006102c682610837565b600060008051602061158a8339815191526001600160a01b038316610653576040516322718ad960e21b815260006004820152602401610448565b6001600160a01b039092166000908152600390920160205250604090205490565b61067c610a5a565b6106866000610ab5565b565b7f80bb2b638cc20bc4d0a60d66940f3ab4a00c1d7b313497ca82fb0b4ab0079301805460609160008051602061158a833981519152916102ec906113be565b610390338383610b26565b6106dd848484610422565b6104ac84848484610bd7565b60606106f482610837565b5060018054610702906113be565b80601f016020809104026020016040519081016040528092919081815260200182805461072e906113be565b801561077b5780601f106107505761010080835404028352916020019161077b565b820191906000526020600020905b81548152906001019060200180831161075e57829003601f168201915b50505050509050919050565b6001600160a01b0391821660009081527f80bb2b638cc20bc4d0a60d66940f3ab4a00c1d7b313497ca82fb0b4ab00793056020908152604080832093909416825291909152205460ff1690565b6107dc610a5a565b6001600160a01b03811661080657604051631e4fbdf760e01b815260006004820152602401610448565b61080f81610ab5565b50565b60006001600160e01b03198216632483248360e11b14806102c657506102c682610d00565b60008061084383610d50565b90506001600160a01b0381166102c657604051637e27328960e01b815260048101849052602401610448565b60009081527f80bb2b638cc20bc4d0a60d66940f3ab4a00c1d7b313497ca82fb0b4ab007930460205260409020546001600160a01b031690565b6104cd8383836001610d8a565b600060008051602061158a833981519152816108d185610d50565b90506001600160a01b038416156108ed576108ed818587610ea0565b6001600160a01b0381161561092d5761090a600086600080610d8a565b6001600160a01b0381166000908152600383016020526040902080546000190190555b6001600160a01b0386161561095e576001600160a01b03861660009081526003830160205260409020805460010190555b600085815260028301602052604080822080546001600160a01b0319166001600160a01b038a811691821790925591518893918516917fddf252ad1be2c89b69c2b068fc378daa952ba7f163c4a11628f55a4df523b3ef91a495945050505050565b6109c8610f04565b6103908282610f4d565b610686610f04565b6109e2610f04565b61080f81610f7e565b60005415610a3b5760405162461bcd60e51b815260206004820152601d60248201527f4f6e6c79206f6e6520746f6b656e2063616e206265206d696e746564210000006044820152606401610448565b600080548180610a4a83611508565b9190505590506103908282610f86565b33610a8c7f9016d09d72d40fdae2fd8ceac6b6234c7706214fd39c1cd1e609a0528c199300546001600160a01b031690565b6001600160a01b0316146106865760405163118cdaa760e01b8152336004820152602401610448565b7f9016d09d72d40fdae2fd8ceac6b6234c7706214fd39c1cd1e609a0528c19930080546001600160a01b031981166001600160a01b03848116918217845560405192169182907f8be0079c531659141344cd1fd0a4f28419497f9722a3daafe3b4186f6b6457e090600090a3505050565b60008051602061158a8339815191526001600160a01b038316610b6757604051630b61174360e31b81526001600160a01b0384166004820152602401610448565b6001600160a01b038481166000818152600584016020908152604080832094881680845294825291829020805460ff191687151590811790915591519182527f17307eab39ab6107e8899845ad3d59bd9653f200f220920489ca2b5937696c31910160405180910390a350505050565b6001600160a01b0383163b156104ac57604051630a85bd0160e11b81526001600160a01b0384169063150b7a0290610c1990339088908790879060040161152f565b6020604051808303816000875af1925050508015610c54575060408051601f3d908101601f19168201909252610c519181019061156c565b60015b610cbd573d808015610c82576040519150601f19603f3d011682016040523d82523d6000602084013e610c87565b606091505b508051600003610cb557604051633250574960e11b81526001600160a01b0385166004820152602401610448565b805181602001fd5b6001600160e01b03198116630a85bd0160e11b14610cf957604051633250574960e11b81526001600160a01b0385166004820152602401610448565b5050505050565b60006001600160e01b031982166380ac58cd60e01b1480610d3157506001600160e01b03198216635b5e139f60e01b145b806102c657506301ffc9a760e01b6001600160e01b03198316146102c6565b60009081527f80bb2b638cc20bc4d0a60d66940f3ab4a00c1d7b313497ca82fb0b4ab007930260205260409020546001600160a01b031690565b60008051602061158a8339815191528180610dad57506001600160a01b03831615155b15610e6f576000610dbd85610837565b90506001600160a01b03841615801590610de95750836001600160a01b0316816001600160a01b031614155b8015610dfc5750610dfa8185610787565b155b15610e255760405163a9fbf51f60e01b81526001600160a01b0385166004820152602401610448565b8215610e6d5784866001600160a01b0316826001600160a01b03167f8c5be1e5ebec7d5bd14f71427d1e84f3dd0314c0f7b2291e5b200ac8c7c3b92560405160405180910390a45b505b600093845260040160205250506040902080546001600160a01b0319166001600160a01b0392909216919091179055565b610eab838383610feb565b6104cd576001600160a01b038316610ed957604051637e27328960e01b815260048101829052602401610448565b60405163177e802f60e01b81526001600160a01b038316600482015260248101829052604401610448565b7ff0c57e16840df040f15088dc2f81fe391c3923bec73e23a9662efc9c229c6a0054600160401b900460ff1661068657604051631afcd79f60e31b815260040160405180910390fd5b610f55610f04565b60008051602061158a83398151915280610f6f8482611448565b50600181016104ac8382611448565b6107dc610f04565b6001600160a01b038216610fb057604051633250574960e11b815260006004820152602401610448565b6000610fbe838360006108b6565b90506001600160a01b038116156104cd576040516339e3563760e11b815260006004820152602401610448565b60006001600160a01b038316158015906110495750826001600160a01b0316846001600160a01b0316148061102557506110258484610787565b806110495750826001600160a01b031661103e8361086f565b6001600160a01b0316145b949350505050565b6001600160e01b03198116811461080f57600080fd5b60006020828403121561107957600080fd5b813561108481611051565b9392505050565b6000815180845260005b818110156110b157602081850181015186830182015201611095565b506000602082860101526020601f19601f83011685010191505092915050565b602081526000611084602083018461108b565b6000602082840312156110f657600080fd5b5035919050565b80356001600160a01b038116811461111457600080fd5b919050565b6000806040838503121561112c57600080fd5b611135836110fd565b946020939093013593505050565b60008060006060848603121561115857600080fd5b611161846110fd565b925061116f602085016110fd565b9150604084013590509250925092565b634e487b7160e01b600052604160045260246000fd5b600067ffffffffffffffff808411156111b0576111b061117f565b604051601f8501601f19908116603f011681019082821181831017156111d8576111d861117f565b816040528093508581528686860111156111f157600080fd5b858560208301376000602087830101525050509392505050565b600082601f83011261121c57600080fd5b61108483833560208501611195565b6000806000806080858703121561124157600080fd5b61124a856110fd565b9350602085013567ffffffffffffffff8082111561126757600080fd5b6112738883890161120b565b9450604087013591508082111561128957600080fd5b6112958883890161120b565b935060608701359150808211156112ab57600080fd5b506112b88782880161120b565b91505092959194509250565b6000602082840312156112d657600080fd5b611084826110fd565b600080604083850312156112f257600080fd5b6112fb836110fd565b91506020830135801515811461131057600080fd5b809150509250929050565b6000806000806080858703121561133157600080fd5b61133a856110fd565b9350611348602086016110fd565b925060408501359150606085013567ffffffffffffffff81111561136b57600080fd5b8501601f8101871361137c57600080fd5b6112b887823560208401611195565b6000806040838503121561139e57600080fd5b6113a7836110fd565b91506113b5602084016110fd565b90509250929050565b600181811c908216806113d257607f821691505b6020821081036113f257634e487b7160e01b600052602260045260246000fd5b50919050565b601f8211156104cd576000816000526020600020601f850160051c810160208610156114215750805b601f850160051c820191505b818110156114405782815560010161142d565b505050505050565b815167ffffffffffffffff8111156114625761146261117f565b6114768161147084546113be565b846113f8565b602080601f8311600181146114ab57600084156114935750858301515b600019600386901b1c1916600185901b178555611440565b600085815260208120601f198616915b828110156114da578886015182559484019460019091019084016114bb565b50858210156114f85787850151600019600388901b60f8161c191681555b5050505050600190811b01905550565b60006001820161152857634e487b7160e01b600052601160045260246000fd5b5060010190565b6001600160a01b03858116825284166020820152604081018390526080606082018190526000906115629083018461108b565b9695505050505050565b60006020828403121561157e57600080fd5b81516110848161105156fe80bb2b638cc20bc4d0a60d66940f3ab4a00c1d7b313497ca82fb0b4ab0079300a2646970667358221220f1f7ce32017a0881656d8ed100b9b668355290f9da3989a3dcbfef49cdf0474b64736f6c63430008170033",
    "linkReferences": {}
  },
  "methodIdentifiers": {
    "URI()": "1141d7de",
    "approve(address,uint256)": "095ea7b3",
    "balanceOf(address)": "70a08231",
    "getApproved(uint256)": "081812fc",
    "initialize(address,string,string,string)": "5f1e6f6d",
    "isApprovedForAll(address,address)": "e985e9c5",
    "name()": "06fdde03",
    "owner()": "8da5cb5b",
    "ownerOf(uint256)": "6352211e",
    "renounceOwnership()": "715018a6",
    "safeTransferFrom(address,address,uint256)": "42842e0e",
    "safeTransferFrom(address,address,uint256,bytes)": "b88d4fde",
    "setApprovalForAll(address,bool)": "a22cb465",
    "supportsInterface(bytes4)": "01ffc9a7",
    "symbol()": "95d89b41",
    "tokenURI(uint256)": "c87b56dd",
    "totalSupply()": "18160ddd",
    "transferFrom(address,address,uint256)": "23b872dd",
    "transferOwnership(address)": "f2fde38b"
  },
  "id": 45
}